:020000023000CC
:1000000000F003202102030065020300E52D030038
:1000100069020300312E0300452E0300000000009A
:10002000000000000000000000000000E5DD060008
:10003000710203000000000005DE060005DF060077
:100040008121090077020300C53409003534090015
:100050005934090077020300F51B0900212009002B
:10006000C52F0900D92F0900ED2F090077020300E1
:100070007702030099320900770203007702030038
:10008000412C0900A12109001D330900A1340900F8
:100090001133090017330900CD59090081E4060026
:1000A00077020300770203000130090015300900D0
:1000B000B5160900413009000000000000000000F2
:1000C00077020300C5160900D51609007D34090022
:1000D000C9440300B926090077020300B94D09009D
:1000E0006FDC03009926090081DF0A000000000090
:1000F00000000000E5160900000000009D0D090049
:1001000000000000000000000000000000000000EF
:1001100000000000000000000000000000000000DF
:1001200000000000000000000000000000000000CF
:1001300000000000000000000000000000000000BF
:1001400000000000000000000000000000000000AF
:10015000000000000000000000000000000000009F
:10016000000000000000000000000000000000008F
:10017000000000000000000000000000000000007F
:10018000000000000000000000000000000000006F
:10019000000000000000000000000000000000005F
:1001A000000000000000000000000000000000004F
:1001B000000000000000000000000000000000003F
:1001C000000000000000000000000000000000002F
:1001D000000000000000000000000000000000001F
:1001E000000000000000000000000000000000000F
:1001F00000000000000000000000000000000000FF
:1002000000000300588D0C00000093010C00030057
:080210000000000000000000E6
:100220000C490D4A0D4B9B1A03DD043BC858D050B6
:10023000FBDC0A490A4A0020521A02DD043A8850BF
:10024000FCDC63F09BF902F05DFE0EF0CFFA02F0E9
:100250009FFF00002C860C0000420020E847002091
:1002600008460120FEE7FEE7FEE7FEE7FEE7FEE7C1
:10027000FEE7FEE7FEE7FEE7D0400B1CD1409C46C0
:10028000203AD34018435242634693401843704784
:100290009140031C90409C46203A9340194352429F
:1002A0006346D3401943704781F0004102E000BF2C
:1002B00083F0004330B54FEA41044FEA430594EA26
:1002C000050F08BF90EA020F1FBF54EA000C55EA61
:1002D000020C7FEA645C7FEA655C00F0E2804FEA32
:1002E0005454D4EB5555B8BF6D420CDD2C4480EA14
:1002F000020281EA030382EA000083EA010180EA44
:10030000020281EA0303362D88BF30BD11F0004F91
:100310004FEA01314FF4801C4CEA113102D04042C7
:1003200061EB410113F0004F4FEA03334CEA133302
:1003300002D0524263EB430394EA050F00F0A7801A
:10034000A4F10104D5F1200E0DDB02FA0EFC22FA15
:1003500005F2801841F1000103FA0EF2801843FA09
:1003600005F359410EE0A5F120050EF1200E012AFA
:1003700003FA0EFC28BF4CF0020C43FA05F3C01838
:1003800051EBE37101F0004507D54FF0000EDCF1B1
:10039000000C7EEB00006EEB0101B1F5801F1BD35A
:1003A000B1F5001F0CD349085FEA30004FEA3C0C5E
:1003B00004F101044FEA445212F5800F80F09A8054
:1003C000BCF1004F08BF5FEA500C50F1000041EB58
:1003D000045141EA050130BD5FEA4C0C404141EB5C
:1003E000010111F4801FA4F10104E9D191F0000F83
:1003F00004BF01460020B1FA81F308BF2033A3F106
:100400000B03B3F120020CDA0C3208DD02F1140CFC
:10041000C2F10C0201FA0CF021FA02F10CE002F137
:100420001402D8BFC2F1200C01FA02F120FA0CFC30
:10043000DCBF41EA0C019040E41AA2BF01EB045179
:10044000294330BD6FEA04041F3C1CDA0C340EDC77
:1004500004F11404C4F1200220FA04F001FA02F3BA
:1004600040EA030021FA04F345EA030130BDC4F178
:100470000C04C4F1200220FA02F001FA04F340EA6D
:100480000300294630BD21FA04F0294630BD94F01E
:10049000000F83F4801306BF81F480110134013D05
:1004A0004EE77FEA645C18BF7FEA655C29D094EA76
:1004B000050F08BF90EA020F05D054EA000C04BFF4
:1004C0001946104630BD91EA030F1EBF00210020DF
:1004D00030BD5FEA545C05D14000494128BF41F07E
:1004E000004130BD14F580043CBF01F5801130BDE2
:1004F00001F0004545F0FE4141F470014FF000006D
:1005000030BD7FEA645C1ABF194610467FEA655C1D
:100510001CBF0B46024650EA013406BF52EA0335BF
:1005200091EA030F41F4002130BD00BF90F0000FAD
:1005300004BF0021704730B54FF4806404F13204E9
:100540004FF000054FF0000150E700BF90F0000FA2
:1005500004BF0021704730B54FF4806404F13204C9
:1005600010F0004548BF40424FF000013EE700BF99
:1005700042004FEAE2014FEA31014FEA02701FBF29
:1005800012F07F4393F07F4F81F06051704792F0FB
:10059000000F14BF93F07F4F704730B54FF4607475
:1005A00001F0004521F0004120E700BF50EA0102C0
:1005B00008BF704730B54FF000050AE050EA01026D
:1005C00008BF704730B511F0004502D5404261EBDD
:1005D00041014FF4806404F132045FEA915C3FF41E
:1005E000DCAE4FF003025FEADC0C18BF03325FEAB7
:1005F000DC0C18BF033202EBDC02C2F1200300FA6C
:1006000003FC20FA02F001FA03FE40EA0E0021FA90
:1006100002F11444C1E600BF70B54FF0FF0C4CF47A
:10062000E06C1CEA11541DBF1CEA135594EA0C0F30
:1006300095EA0C0F00F0DEF82C4481EA030621EA6B
:100640004C5123EA4C5350EA013518BF52EA0335A6
:1006500041F4801143F4801338D0A0FB02CE4FF058
:100660000005E1FB02E506F00042E0FB03E54FF088
:100670000006E1FB03569CF0000F18BF4EF0010E80
:10068000A4F1FF04B6F5007F64F5407404D25FEA7C
:100690004E0E6D4146EB060642EAC62141EA55512F
:1006A0004FEAC52040EA5E504FEACE2EB4F1FD0C71
:1006B00088BFBCF5E06F1ED8BEF1004F08BF5FEAEF
:1006C000500E50F1000041EB045170BD06F00046A1
:1006D00046EA010140EA020081EA0301B4EB5C044E
:1006E000C2BFD4EB0C0541EA045170BD41F4801146
:1006F0004FF0000E013C00F3AB8014F1360FDEBF6B
:10070000002001F0004170BDC4F10004203C35DA46
:100710000C341BDC04F11404C4F1200500FA05F3C9
:1007200020FA04F001FA05F240EA020001F000426A
:1007300021F0004110EBD37021FA04F642EB0601E0
:100740005EEA430E08BF20EAD37070BDC4F10C040A
:10075000C4F1200500FA04F320FA05F001FA04F2CE
:1007600040EA020001F0004110EBD37041F10001BA
:100770005EEA430E08BF20EAD37070BDC4F12005C5
:1007800000FA05F24EEA020E20FA04F301FA05F22D
:1007900043EA020321FA04F001F0004121FA04F2D5
:1007A00020EA020000EBD3705EEA430E08BF20EAA5
:1007B000D37070BD94F0000F0FD101F000464000DF
:1007C00041EB010111F4801F08BF013CF7D041EA61
:1007D000060195F0000F18BF704703F00046520065
:1007E00043EB030313F4801F08BF013DF7D043EA36
:1007F0000603704794EA0C0F0CEA135518BF95EAEC
:100800000C0F0CD050EA410618BF52EA4306D1D172
:1008100081EA030101F000414FF0000070BD50EA91
:10082000410606BF1046194652EA430619D094EA1B
:100830000C0F02D150EA013613D195EA0C0F05D105
:1008400052EA03361CBF104619460AD181EA030159
:1008500001F0004141F0FE4141F470014FF0000011
:1008600070BD41F0FE4141F4780170BD70B54FF0AC
:10087000FF0C4CF4E06C1CEA11541DBF1CEA13552C
:1008800094EA0C0F95EA0C0F00F0A7F8A4EB05040E
:1008900081EA030E52EA03354FEA013100F0888005
:1008A0004FEA03334FF0805545EA131343EA1263CE
:1008B0004FEA022245EA111545EA10654FEA002683
:1008C0000EF000419D4208BF964244F1FD0404F53C
:1008D000407402D25B084FEA3202B61A65EB030598
:1008E0005B084FEA32024FF480104FF4002CB6EB55
:1008F000020E75EB030E22BFB61A754640EA0C00D5
:100900005B084FEA3202B6EB020E75EB030E22BF14
:10091000B61A754640EA5C005B084FEA3202B6EB55
:10092000020E75EB030E22BFB61A754640EA9C0014
:100930005B084FEA3202B6EB020E75EB030E22BFE4
:10094000B61A754640EADC0055EA060E18D04FEAA2
:10095000051545EA16754FEA06164FEAC30343EA42
:1009600052734FEAC2025FEA1C1CC0D111F4801F0F
:100970000BD141EA00014FF000004FF0004CB6E708
:1009800011F4801F04BF01430020B4F1FD0C88BFA7
:10099000BCF5E06F3FF6AFAEB5EB030C04BFB6EBB2
:1009A000020C5FEA500C50F1000041EB045170BDA5
:1009B0000EF0004E4EEA113114EB5C04C2BFD4EBD2
:1009C0000C0541EA045170BD41F480114FF0000E56
:1009D000013C90E645EA060E8DE60CEA135594EAD2
:1009E0000C0F08BF95EA0C0F3FF43BAF94EA0C0FD5
:1009F0000AD150EA01347FF434AF95EA0C0F7FF44A
:100A000025AF104619462CE795EA0C0F06D152EA9D
:100A100003353FF4FDAE1046194622E750EA410681
:100A200018BF52EA43067FF4C5AE50EA41047FF492
:100A30000DAF52EA43057FF4EBAE12E74FF0FF3CF7
:100A400006E000BF4FF0010C02E000BF4FF0010CC8
:100A50004DF804CD4FEA410C7FEA6C5C4FEA430C41
:100A600018BF7FEA6C5C1BD001B050EA410C0CBF90
:100A700052EA430C91EA030F02BF90EA020F0020F2
:100A8000704710F1000F91EA030F58BF994208BF59
:100A900090422CBFD8176FEAE37040F00100704716
:100AA0004FEA410C7FEA6C5C02D150EA013C07D16D
:100AB0004FEA430C7FEA6C5CD6D152EA033CD3D0B8
:100AC0005DF8040B704700BF8446104662468C46B2
:100AD0001946634600E000BF01B5FFF7B7FF0028E5
:100AE00048BF10F1000F01BD4DF808EDFFF7F4FF0E
:100AF0000CBF012000205DF808FB00BF4DF808ED99
:100B0000FFF7EAFF34BF012000205DF808FB00BFBB
:100B10004DF808EDFFF7E0FF94BF012000205DF8DD
:100B200008FB00BF4DF808EDFFF7CEFF94BF012092
:100B300000205DF808FB00BF4DF808EDFFF7C4FF8B
:100B400034BF012000205DF808FB00BF4FEA410CD4
:100B50007FEA6C5C02D150EA013C0AD14FEA430CB7
:100B60007FEA6C5C02D152EA033C02D14FF00000F4
:100B700070474FF0010070474FEA410212F5001232
:100B800015D211D56FF47873B3EB625212D94FEAD4
:100B9000C12343F0004343EA505311F0004F23FABE
:100BA00002F018BF404270474FF00000704750EA13
:100BB000013005D111F0004008BF6FF000407047D0
:100BC0004FF00000704700BF4A0011D212F500122A
:100BD00011D20DD56FF47873B3EB62520ED44FEA95
:100BE000C12343F0004343EA505323FA02F0704715
:100BF0004FF00000704750EA013002D14FF0FF3053
:100C000070474FF0000070477BB972B90029BEBF32
:100C100000204FF0004106E008BF00281CBF6FF025
:100C200000414FF0FF3000F0DDB9ADF1080C6DE987
:100C300004CE002909DB002B1ADB00F061F8DDF897
:100C400004E0DDE9022304B07047404261EB41015A
:100C5000002B1BDB00F054F8DDF804E0DDE9022393
:100C600004B0404261EB4101524263EB43037047E1
:100C7000524263EB430300F043F8DDF804E0DDE9A2
:100C8000022304B0404261EB41017047524263EBE2
:100C9000430300F035F8DDF804E0DDE9022304B099
:100CA000524263EB4303704753B94AB9002908BF66
:100CB00000281CBF4FF0FF314FF0FF3000F092B919
:100CC000ADF1080C6DE904CE00F01AF8DDF804E08F
:100CD000DDE9022304B07047430803F05533C01A1E
:100CE000830803F0333300F03330184400EB101066
:100CF00000F00F3000EB002000EB0040000E7047CA
:100D00002DE9F0478C460E460446089D002B50D135
:100D10008A4217466CD9B2FA82FEBEF1000F0BD0A0
:100D2000CEF1200420FA04F401FA0EF644EA060C8F
:100D300002FA0EF700FA0EF44FEA1749220CBCFB38
:100D4000F9F01FFA87F809FB10C642EA064600FBD5
:100D500008F3B34209D9F61900F1FF3280F022817D
:100D6000B34240F21F8102383E44F61AA2B2B6FBEB
:100D7000F9F309FB136642EA064403FB08F8A045B1
:100D800009D9E41903F1FF3280F00A81A04540F24D
:100D90000781023B3C44C8EB040443EA00400021C5
:100DA000002D62D024FA0EF400232C606B60BDE8A5
:100DB000F0878B4207D9002D55D0002185E84100EE
:100DC0000846BDE8F087B3FA83F1002940F090802F
:100DD000B34202D3824200F2F880841A66EB030623
:100DE0000120B446002D40D085E81010BDE8F08702
:100DF00012B90127B7FBF2F7B7FA87FEBEF1000F71
:100E000035D1F31B4FEA17481FFA87FC0121B3FBCA
:100E1000F8F0220C08FB103642EA06460CFB00F301
:100E2000B34207D9F61900F1FF3202D2B34200F201
:100E3000CE801046F61AA2B2B6FBF8F308FB136692
:100E400042EA06440CFB03FCA44507D9E41903F16C
:100E5000FF3202D2A44500F2B5801346CCEB040465
:100E600043EA00409CE729462846BDE8F087CEF1DA
:100E7000200106FA0EF307FA0EF720FA01F94FEAFD
:100E80001748CE4049EA0309B6FBF8FA4FEA19447D
:100E900008FB1A661FFA87FC44EA06430AFB0CF2B9
:100EA0009A4200FA0EF40AD9DB190AF1FF3180F0F8
:100EB00087809A4240F28480AAF1020A3B449B1A3E
:100EC0001FFA89F9B3FBF8F108FB113349EA034330
:100ED00001FB0CF69E4207D9DB1901F1FF326BD200
:100EE0009E4269D902393B449B1B41EA0A418EE785
:100EF000C1F1200E22FA0EF48B40234320FA0EF7A4
:100F000006FA01F44FEA134C26FA0EF63C43B6FB00
:100F1000FCF9270C0CFB19661FFA83F847EA064612
:100F200009FB08F7B74202FA01F200FA01FA08D900
:100F3000F61809F1FF3041D2B7423FD9A9F10209B1
:100F40001E44F61BA0B2B6FBFCF40CFB146640EA90
:100F5000064704FB08F8B84507D9FF1804F1FF302D
:100F600028D2B84526D9023C1F4444EA0940C8EBC0
:100F70000707A0FB02894F4544464E4614D329D0AB
:100F800065B3BAEB040367EB060707FA0EFECB4026
:100F9000CF404EEA030385E888000021BDE8F087D2
:100FA0001346F8E61046E0E6B8EB020469EB0306E8
:100FB0000138E5E70446D8E7114695E78146C0E7E2
:100FC0008A467CE7023B3C4448E708460AE7023889
:100FD0003E442FE7C245E7D33E46D1E72946BDE868
:100FE000F08700BF704700BF000000000000000055
:100FF00001F0FF01102A2BDB10F0070F08D010F8CA
:10100000013B013A8B422DD010F0070F42B3F6D1CD
:10101000F0B441EA012141EA014122F007047FF0E6
:1010200000070023F0E80256083C85EA010586EA3D
:10103000010685FA47F5A3FA87F586FA47F6A5FA79
:1010400087F68EB9EED1F0BC01F0FF0102F0070285
:1010500032B110F8013B013A83EA010313B1F8D130
:101060000020704701387047002D06BF3546033811
:10107000073815F0010F07D1013015F4807F02BF4A
:10108000013015F4C03F0130F0BC0138704700BF9B
:1010900010F8012B11F8013B012A28BF9A42F7D022
:1010A000D01A7047034613F8012B002AFBD1181AF7
:1010B0000138704700B1807B704708B1C07B704732
:1010C000FF20704708B1808970474FF6FF70704766
:1010D00005C8101A7047084606F09CBB18B1436B50
:1010E000994208BF0021084606F0CEBA38B502FB87
:1010F00001F4204606F08EFB054618B12246002179
:101100007EF025F8284638BD70B50D46164622B942
:10111000084606F0B9FA304670BD104606F07AFB74
:10112000044638B135B1324629467DF0EAFF2846FB
:1011300006F0AAFA204670BDF8B5064608460F46E6
:1011400001F0C8FF06F0FAFA0C4C206006F0EAFA4B
:1011500025682062281AE06106F0EAFA281A606120
:10116000384601F0C7FF0FCC35460FC50FCC0FC571
:1011700094E8030085E803003046F8BDE847002006
:1011800008B500F0A5FA4FF4E131BDE8084000F0E1
:1011900075BA000008B500F09BFA044900F0D3FED0
:1011A0004FF47A70BDE8084000F091BE7C1F0B0040
:1011B00001F048BC10B5036804469B689847A368D3
:1011C000013BA3602BB923682046DB68BDE81040D3
:1011D000184710BD10B50446006828B14368013BAC
:1011E00043600BB9FFF7E6FF204610BD00231A4607
:1011F00040681AF0CDBD0022022140681AF010BCF0
:101200000022114640681AF07FBB00221146406858
:101210001AF04ABB00231A46194640681AF090BCDF
:1012200000231A46194640681AF0C8BC002281F013
:10123000010140681AF014BD002240681AF08CBB0E
:101240000022114640681AF088BB0022114640680F
:101250001AF085BB70B58CB01446064600F098FABB
:101260000CAB0022114643F8302D204610F080FAD6
:10127000014658BB009B4BB35A68022A0ED00A2A7B
:1012800024D15C69112201A87DF061FF06238DF84D
:10129000143001AD04F10803183405E059693046F3
:1012A000043100F0A2FA11E0186859682A4603C216
:1012B0000833A3421546F7D101A906A807AD00F0EF
:1012C00075FA0FCD341D0FC42B682370009810F0F1
:1012D0004DFA30460CB070BD024B034A1A60002232
:1012E0005A607047104800209C1F0B0000221146D6
:1012F00040681AF0D9BA0022114640681AF02FBB94
:101300000022114640681AF028BB002240681AF0FB
:1013100023BB002281F0010140681AF0A1BC002328
:101320001A46194640681AF049BC00231A46194665
:1013300040681AF005BC0022114640681AF0E4BA71
:101340000022022140681AF06BBB00231A46406855
:101350001AF01EBD024B04225A60024A1A607047FE
:1013600018480020D01F0B000022114640681AF0D8
:10137000F6BA0022114640681AF0EFBA002240681F
:101380001AF0EABA002281F0010140681AF068BC44
:1013900000231A46194640681AF010BC00231A466A
:1013A000194640681AF0CCBB0022114640681AF07A
:1013B0007BBA0022114640681AF0A6BA0022022128
:1013C00040681AF02DBB00231A4640681AF0E0BCB2
:1013D00010B103685B681847704738B50446006869
:1013E000D0B10DF069FFB8B9237C1BB9206808B1F2
:1013F0000DF078FF656855B1AB681BB10322294633
:101400002846984728460CF084FE00236360206835
:101410000DF07AFF0023236038BD000038B50B4B78
:1014200003600446D0F8CC0108B10CF074FED4F887
:10143000C4512DB12846FFF7D0FF28460CF069FEB5
:10144000A06808B1FFF7C4FF204638BD04200B0098
:1014500038B50D4C0D4B23600025022304F5E470D4
:101460006360A560C4F8C451C4F8C8510DF0B1FF61
:10147000074BC4F8CC5123602046064A0649BDE814
:1014800038407DF03FBC00BF204800209C1F0B006F
:1014900004200B00446000201D140300704710B5A9
:1014A00004460CF036FE204610BD000070B5084B17
:1014B0000360044600250E4640F80C5F0DF06BFFFC
:1014C000304626710BF016FBA560204670BD00BFAC
:1014D00038200B0010B5044630B17EF0E1FA90FBE5
:1014E000F4F303FB140010BD10BD884210B5044690
:1014F00004DA081AFFF7EEFF204410BD10BD10B546
:10150000836804460BB97DF047FCC3689847A3681D
:101510001BB103222146204698472046BDE81040D3
:101520000CF0F7BD704741747047007C0CF050BD63
:10153000007C0CF049BC007C0CF01CBD007C0CF065
:10154000B1BC007C0CF0F2B810B504460CF0E1FD23
:10155000204610BD70B5457C04460E4625B9007C7A
:101560000CF036FD002805DD3146207CBDE87040DA
:101570000CF0ACBD284670BD10B5044608461146B7
:10158000002262604FF47A72A260054A2260012252
:10159000207462741A460CF0A5F8204610BD00BFF6
:1015A00048200B000023007C0CF0A4B90022FFF7B8
:1015B000F9BF000038B50C4D296811F0010411D1B4
:1015C00028460AF0B1FA68B1084A094B0948214691
:1015D000FFF7D2FF28460AF0DDFA074A0749054817
:1015E0007DF090FB034838BD884A00208C4A0020DB
:1015F000044A0020F0490020446000202515030023
:101600004174704770470021007C0AF03CBF012103
:10161000007C0AF038BF007C0AF033BF007C0AF07F
:101620002EBF38B50446007C0D460AF02AFF00287C
:1016300001DC607C20B12946207C0AF02DFF0120CE
:1016400038BD007C0AF032BF10B504460CF061FDD5
:10165000204610BD10B50446002363604FF47A7332
:10166000A360054B2360012308462174637411466F
:101670000AF0D8FE204610BD78200B000022007C26
:101680000AF0F8BE007C0AF0F8BE10B51422044639
:1016900000217DF05CFD204610BD000010B5002348
:1016A0004FF47A7286B00446436082600374074A3E
:1016B00002600123437401A8FFF7E7FF207C01A922
:1016C0000AF0B0FE204606B010BD00BF78200B0027
:1016D00030B50E4D87B001A8FFF7D7FF296811F08C
:1016E000010410D128460AF01FFA60B101AA214670
:1016F0000748FFF7AFFF28460AF04CFA054A0649AB
:1017000003487DF0FFFA024807B030BD104B0020BF
:10171000144B00204460002005160300704710B5EC
:1017200004460CF0F6FC204610BDF0B5037D062BF8
:101730008DB00E4600F104074FF0000402D000F116
:10174000080518E00CAD394605F8304D2F232A4620
:101750000A2011F0FEFC2846FFF7A4FC336802467D
:10176000DB682946304698470FE024B12E213046E9
:1017700000F0DAFB044415F8011D0A22304600F09F
:1017800019FCBD420444F0D120460DB0F0BD00006C
:1017900010B5054B0446112240F8043B00217DF0B2
:1017A000D6FC204610BD00BFA8200B000346074A08
:1017B00010B543F8042B01F1100251F8044B43F823
:1017C000044B9142F9D10A781A7010BDA8200B0081
:1017D00010B59DF8084044EA032343EA024242EA76
:1017E000016104234160037510BD37B50D788B7816
:1017F0004A78C97800912946FFF7EAFF03B030BD67
:1018000070470020704710B504460CF082FC20465B
:1018100010BD08B508B1FFF7F6FF08BD10B5836825
:10182000044613B1032201469847204610BD38B53F
:10183000C468D4B12378022B02D1E0687DF04AFC61
:1018400065682DB12846FFF7E9FF28460CF061FCDA
:10185000A5682DB12846FFF7E1FF28460CF059FC9A
:101860002046BDE838400CF054BC38BD13B50446E2
:1018700091E8050000234B600B602060626001A8C6
:1018800001930093FFF7A6FC204602B010BD0B6841
:10189000036013B15A6801325A607047F7B50C46BD
:1018A00002AD54F8043B45F8083D06460F4601A832
:1018B0002146FFF7ECFF29463046FFF7D7FF01A886
:1018C000FFF788FC2046FFF785FC38460CF021FC2A
:1018D000304603B0F0BD13B50B46044603C88DE88F
:1018E000030093E8030084E803009DE8030083E815
:1018F000030002B010BD826810B50AB97DF04CFA41
:10190000C368BDE81040184708B5006800F1100131
:10191000FFF7F1FF08BD826810B50AB97DF03CFA07
:10192000C368BDE81040184708B5006800F1100111
:10193000FFF7F1FF08BD38B5002383608B680446CC
:101940000D462BB102229847EB68E360AB68A360B9
:10195000204638BD2DE9F0414FF69C7386B00468EF
:10196000B1F904208B8000230F688DF800300B60E4
:101970004FF00200D4E84F1F994203D1C4E8450F4D
:10198000002DF7D102D08DF800106AE014F10C059B
:101990001EBFE76022821F460123BFF35F8F002036
:1019A000637004F10803BFF35F8F53E8006F43E8EF
:1019B0000002002AF9D1BFF35F8F002E51D01DF035
:1019C000AFF920B129463046FFF795FF43E0314695
:1019D0006846FFF7B0FFE068B4F9105008B17EF038
:1019E000D9F904901020ADF814500CF08EFB054688
:1019F00030B34FF00008C0F8088018200CF085FBC9
:101A00000446C0B1C0F8088001466846FFF763FF8E
:101A1000029BA268A360039B0292E268E360BDF8A8
:101A20001430A3824FF69C73ADF81430049B0392DC
:101A30002361CDF810800E4BEB600E4B2C60AB6039
:101A400004987DF047FB6846FFF7E8FE0022294630
:101A500009481DF01FFD3046FFF7E0FE30460CF050
:101A600058FB38467DF036FB06B0BDE8F08100BF7C
:101A700009190300651B0300FF1403002DE9F04F53
:101A80008BB007AD4FF0000B0646994614200C238F
:101A90000F4690469DF850A0C5F804B0C5F808B0B0
:101AA00007930CF032FB044638B180F800B080F8A0
:101AB00001B0C0F804B0C0F808B0002310200394AF
:101AC00004930CF022FB28B1012343608360234B75
:101AD0000360C4600490224B089308200CF015FBAF
:101AE000044628B1039B40F8043B04A9FFF7CFFE4E
:101AF00000955FFA8AF34A4641463846099418F041
:101B0000B1FEB8B9039B5B7803F0FF0293B94FF6BF
:101B10009C7305A903A80592ADF81830FFF71AFFCA
:101B200005987DF0D7FA05A80999FFF7B7FE06A832
:101B3000FFF750FB039B059304A906A8FFF7A7FE38
:101B400005A93046FFF792FE06A8FFF743FB04A85D
:101B5000FFF740FB30460BB0BDE8F08FBC200B0018
:101B6000CD1C0300022AF8B5044606D0032A17D07C
:101B7000012A20D10B6803601DE018200E680CF0CC
:101B8000C4FA054650B13146FFF7D5FE3069B6F9C3
:101B9000147008B17EF0FEF82861AF8225600AE07B
:101BA000046844B120697DF095FA2046FFF736FEBF
:101BB00020460CF0AEFA0020F8BD38B50023836053
:101BC0008B6804460D462BB102229847EB68E36010
:101BD000AB68A360204638BD022A70B5044606D023
:101BE000032A11D0012A17D10B68036014E01420D6
:101BF0000E680CF08AFA054620B13146FFF7DDFF8A
:101C0000337C2B74256007E004682CB12046FFF775
:101C100005FE20460CF07DFA002070BDF0B50023D3
:101C200087B00C46BFF35F8F50E8006F40E800328A
:101C3000002AF9D1BFF35F8F002E3ED018461DF069
:101C40006FF8074620B121463046FFF764FE2EE0CC
:101C5000314601A8FFF7B1FF23788DF8143010202A
:101C60000CF053FA0546D0B1876014200CF04DFA01
:101C7000044678B18760014601A8FFF72CFE039B5C
:101C8000A268A360049B0392E268E3609DF81430AD
:101C9000049223740A4BEB600A4B2C60AB6001A8E2
:101CA000FFF7BCFD0022294607481DF0F3FB304634
:101CB000FFF7B4FD30460CF02CFA07B0F0BD00BFC2
:101CC00029190300D91B0300FF14030030B585B0A8
:101CD00004460D4668461146FFF7E0FD7CB124B28C
:101CE00028460DB17EF056F8029002A96846ADF87C
:101CF0000C40FFF72FFE02987DF0ECF91DE00098F4
:101D00008DF808404FF00102D0E84F3FA34203D1C5
:101D1000C0E8412F0029F7D102D08DF808300CE03F
:101D200010F10C014FF0010318BF0373BFF35F8F75
:101D3000043000F8033CFFF771FF01A8FFF74AFAEF
:101D400005B030BD08B50C4B33B1FFF7C1FC0368DB
:101D50001B699847002809DC084B63B1FFF72AFC90
:101D600003681B699847002803DC08BDAFF30080B7
:101D7000F2E7AFF3008008BD0000000000000000A3
:101D800008B5FFF7DFFF09F076FF014B186008BDCB
:101D90009887002010B50446FFF740FD204610BD8F
:101DA00010B5044624F042FA844208D01CB1BDE8C4
:101DB000104024F021BABDE8104024F059B910BDFC
:101DC00070B505460E46144624F030FA50B144EA88
:101DD000062040EA054024F045F9E720BDE87040C0
:101DE00024F0A0B970BDC2B2C0F30721C0F3074010
:101DF000FFF7E6BF0348044A0449002383607CF0F0
:101E000081BF00BF284B002044600020951D0300C7
:101E100038B5002383608B6804460D462BB102223F
:101E20009847EB68E360AB68A360204638BD0000CC
:101E3000024B1A68024B1A60704700BF0042002034
:101E4000384B0020014B024A1A6070473C4B00207F
:101E50009C210B002DE9F04705460E4692461F4691
:101E600009F009FF002481463FB109F004FFC9EBE6
:101E70000000874201D2BDE8F0872B6828461B6925
:101E800098470028F0DD2B6828465B699847544541
:101E9000C1B203D100233370BDE8F0870D29F9D01A
:101EA0000A29F7D0082901D07F2905D1002CDBD0E1
:101EB00006F1FF38013C03E006F1010831700134FE
:101EC0002B6828469B68E4B298474646CCE7002139
:101ED0001DF04EB9F8B506460D468F180024BD42D8
:101EE0000CD0336815F8011B9B68304698470028D2
:101EF00001DB0444F3E7002C08BF04462046F8BD8C
:101F000070B505460C46084649B1FFF7CBF82B687B
:101F1000024621462846DB68BDE87040184770BD80
:101F200008B5FFF7EDFF08BD03689B68184738B593
:101F30000D210546FFF7F8FF0A2104462846FFF762
:101F4000F3FF204438BD38B50546FFF7D9FF0446F6
:101F50002846FFF7ECFF204438BD30B58BB00B4668
:101F600000218DF82410012A98BF0A220DF12304C4
:101F7000B3FBF2F505FB123303F0FF03092B94BF0B
:101F800030333733DBB2214604F801392B46002DBC
:101F9000EED1FFF7B5FF0BB030BD10B42AB903681E
:101FA0005DF8044B9B68C9B21847D2B25DF8044B88
:101FB000FFF7D3BFFFF7F1BF2DE9F04107460E460B
:101FC00015462AB90368C9B29B68BDE8F0411847B5
:101FD0000A2A02D1002901DA04E0D2B2BDE8F041B8
:101FE000FFF7BBBF2D21FFF79FFF2A460446714232
:101FF0003846FFF7B2FF2044BDE8F0810CB42DE96C
:10200000F04387B000AF07F13804054654F8049B4D
:102010003C600E4623464A461421381D7EF0BCF82B
:10202000132805D8391D2846FFF76AFF044613E038
:1020300000F1080323F00703E846ADEB030D411C54
:1020400023464A4668463C607EF0A6F86946284624
:10205000FFF756FF0446C5461EB12846FFF767FF47
:10206000044420461C37BD46BDE8F04302B070472B
:102070000023036043608360037310B50C68046041
:102080004C6844608C6884600B604B608B6010BD52
:1020900010B5044600687DF01DF8204610BD10B54F
:1020A0000446006808B17DF015F800232360A360A2
:1020B000636010BD38B504460D46006801317DF0FF
:1020C0004DFD10B184E82100012038BD10B5036832
:1020D000044613B143688B4207D22046FFF7EAFF5C
:1020E00020B1A3680BB922681370012010BD70B530
:1020F0000E46114604461546FFF7E8FF18B920467C
:10210000FFF7CDFF09E02A463146A56020687CF044
:10211000F8FF2268A3680021D154204670BD38B56D
:102120000023044603604360836003730D4639B1A6
:102130000846FEF7B7FF294602462046FFF7D7FFBD
:10214000204638BD884210B50B46044607D00968C2
:1021500019B19A68FFF7CBFF01E0FFF7A0FF204617
:1021600010BD10B500230446036043608360037311
:10217000FFF7E8FF204610BD70B504460E4609B9CA
:10218000002070BD6AB18368D5182946FFF79EFF0D
:102190000028F5D02068A368314618447DF0E0FDA2
:1021A000A560012070BD07B500238DF80410012241
:1021B00001A98DF80530FFF7DFFF03B05DF804FBE0
:1021C00010B50446FEF76EFF0138231820469842EA
:1021D00006D20278197800F8011B03F80129F6E706
:1021E00010BD70B50C46911E222920D825462946DF
:1021F00010B9234430220EE0B0FBF2F602FB1600C9
:10220000C1B205F8011B092894BF3031573105F8D8
:10221000011C3046EBE7994202D201F8012BFAE7A4
:10222000002320460B70FFF7CBFF204670BD002037
:1022300070BD38B5031E0C4615460BDAB3F1004FDE
:102240004FF02D0214BF5842184601230A702A4647
:10225000194400E00123FFF7C4FF204638BD00F019
:10226000B5BE00F0D3BE014600228C2000F0A6BE11
:102270000020FFF7F8BF0000044B00204FF6FF726C
:10228000187058809A8017F0D7BD00BF404B0020CF
:1022900070470A680B4692680146184610470000CE
:1022A00010B5054B00220446114640F8043B25F0CA
:1022B0001FFA204610BD00BFC0210B0010B5044618
:1022C000FFF7EEFF20460BF024FF204610BD000074
:1022D00070B50E4C04601C2444609DF814409DF8B9
:1022E000106004F0030444EA86040025E4B2047498
:1022F000427485744161427C85600F2A08BF044B9B
:10230000C56006BF8361C061038370BDC0210B003F
:102310009322030000221146406819F020BB0022DE
:102320001146406819F019BB0022406819F014BB2F
:10233000002281F00101406819F092BC00231A4686
:102340001946406819F03ABC00231A4619464068FD
:1023500019F0F6BB00221146406819F0A5BA002218
:102360001146406819F0D0BA00220221406819F0E5
:1023700057BB00231A46406819F00ABD024B0322DE
:102380005A60024A1A607047484B0020D4210B0063
:102390001FB50023039305238DF80C30012900FAA3
:1023A00003F308490246C85A06D103AB0093064915
:1023B00002230CF03FFE01E00CF0DEFE05B05DF8FC
:1023C00004FB00BF044200201124030010B50E4B93
:1023D00003EB401200219180DA78044642B993F869
:1023E00023302BB9094860F06BFD084860F0A0FD70
:1023F000E4B2204600211CF083F820460121BDE80C
:102400001040FFF7C5BF00BF04420020F0820B0060
:1024100008B50A4B03EB4013002101229980C0B29A
:10242000DA70FFF7B5FF064860F066FD20B9044892
:10243000BDE8084060F026BD08BD00BF0442002092
:10244000F0820B0030B54301174A0C4685B00546B3
:102450000221D05A09F0D8FD012C22D1134A92E86A
:10246000030002AB83E80300114A1248194660F0EA
:1024700041FC20B1104A00210A2023F035FD0F4B0A
:102480000F49D3F810250B480124D2B221FA02F2E9
:1024900000940021234660F07CFD21462846FFF78A
:1024A00077FF05B030BD00BF04420020C01D0B0007
:1024B000D9240300F0820B0085BC030000A000407B
:1024C0000071020008B54001024B185A09F0D8FD0E
:1024D000C0B208BD04420020B0F5A07F38B54CD191
:1024E000264CE37893B10020FFF7ECFF70B9A38886
:1024F0009BB233B9A3880A339BB2A38001211BF09E
:10250000FFFFA3880A339BB2A38006E0E37823B1E0
:102510001A4B0020D870FFF759FF238C174DFF2B63
:102520001CD095F82330CBB10120FFF7CBFF95F8F5
:1025300022305A1E5342534198420FD1AB8C9BB26A
:102540003BB9AB8C0A339BB20121AB8408461BF02C
:10255000D7FFA38C0A339BB2A38438BD228C074BD0
:10256000FF2A0AD093F823203AB1002283F82320CF
:102570000120BDE83840FFF729BF38BD04420020E4
:10258000024B03EB4010808880B270470442002069
:10259000083808B506282AD8DFE800F0121C2229DE
:1025A00029040E00124B002283F8242083F82C20EB
:1025B0009A6283F8252008BDBDE8084064F000BB9E
:1025C0000B4B01225A7062F0D5F880B9BDE8084083
:1025D00064F0F4BA64F006FB054B00225A7008BDA3
:1025E000034B02225A70BDE8084064F0EBBA08BD04
:1025F000904B0020F0B5324F3C788BB0002C5CD172
:1026000061F0CAF8852805D020B12E4A21460A205B
:1026100023F06AFC002061F0DBF861F04DF900283E
:10262000FBD000240C21684600940194029409F028
:10263000B1F903AD06462146192228467CF087FDF4
:10264000F6B221468E4217D01DF80130180900F16C
:102650003002392A88BF00F1570203F00F0305F852
:10266000112003F13002392A88BF03F1570205EB2C
:10267000410301315A70E5E7134E32220021304602
:102680007CF065FD40F23233338000242846FEF7AB
:1026900009FD844206D201342B1913F8013C26F8B7
:1026A0001430F3E7094864F0FFF920B1054A00212E
:1026B0000A2023F019FC01233B7000200BB0F0BD71
:1026C000904B002085BC0300B845012018830B0007
:1026D00070B5194C1E46A378012B154623D00A4627
:1026E0000146201D63F0CEFAF8B92946324604F1BE
:1026F000140063F0C7FA0546D0B9104864F07CFABC
:1027000020B10F4A29460A2023F0EEFB00200CF0EE
:1027100043FA64F03DFA20B1094A00210A2023F06F
:10272000E3FB0123A370002070BD4FF0FF3070BDAC
:102730006FF0010070BD00BF904B0020F8820B00CD
:1027400085BC0300F7B52C4D95F8243006460F469E
:10275000002B4DD0294B9B68002B49D1EFF3108300
:10276000002B45D1EFF31183052B41D80446A31B61
:10277000BB4212DA2A8BE9692B6A5B1A9342FAD8B8
:1027800014F8011B1E4863F08CFA0028EFD01D4A94
:1027900000210A2023F0A8FBE9E795F82530002462
:1027A0008DF8074003F0FF0603BB174F14480DF1E7
:1027B0000701B4B263F087FA30B99DF80730F355DA
:1027C0000136402EF2D13446012322460E490F48ED
:1027D00085F8253065F030FD40B10A4A00210A2015
:1027E00023F082FB044B002483F82540204601E0BF
:1027F0004FF0FF3003B0F0BD904B0020D4440120D7
:10280000A44B002085BC0300504B0020F8820B0035
:10281000014B5861704700BF444C0020014B586980
:10282000704700BF444C00202DE9F34106460429BF
:1028300000F28180DFE801F055220B1D03003F4BC1
:102840001A6B002A77D0FFF7E9FF904773E03B4C03
:10285000012384F8243004F11400002384F82C3080
:10286000A36284F8253063F050FA201D63F04DFA1E
:102870005CE0324B002283F824205CE02F4B93F87D
:10288000242000248DF8074002F0FF011F4612B9F2
:1028900083F825104FE0DFF8A880284E0DF10701DE
:1028A00006F11400A5B263F00EFA40B99DF80730A6
:1028B00004F808300134402CEFD1254603E015B967
:1028C00086F8255037E001232A461D491D4887F820
:1028D000253065F0B1FC70B3184B002283F8252039
:1028E00029E0164C012384F82C3065F0C4FCA0626A
:1028F000E1682369A26A134422895B1A93421AD8B9
:10290000114F0025A36A0D48AB420BD9795D043005
:1029100063F0C7F920B10D4A00210A2023F0E4FA40
:102920000135EFE7002380F82C30836280220649CE
:10293000304665F0A3FC02B0BDE8F081904B00206A
:10294000504B0020F8820B00C44B002085BC0300D4
:10295000034AD0681369926A1344181A704700BF7B
:10296000904B002073B51E4C94F82C3013B3E168E3
:102970002269A36A134422895B1A93421AD8194E1A
:102980000025A36A1648AB420BD9715D043063F091
:1029900088F920B1144A00210A2023F0A5FA013554
:1029A000EFE7002380F82C30802283620D490F4826
:1029B00065F064FCE268236900259A428DF80750AF
:1029C0000AD00DF107010A4863F07DF920B1064AEB
:1029D00029460A2023F088FA9DF8070002B070BD4E
:1029E000904B0020C44B002085BC0300F8820B00F4
:1029F000944B002013B502AA0024014602F8014DB1
:102A0000044863F071F910B99DF8070000E0204612
:102A100002B010BD944B0020014863F076B900BFAE
:102A2000A44B0020034AD169108B136A01305B1A52
:102A3000C01A7047904B0020014B1863704700BFCD
:102A4000904B0020004870474442002010B50368B6
:102A50002F2B044604D9074A00210A2023F044FA08
:102A600023681F2B83BF03F01F03236002484FF02E
:102A7000A04010BD85BC030000030050034B18802C
:102A800059809A80024B01221A607047C84C00207E
:102A900008C00140034B1A8802805A8842809B88F4
:102AA00083807047C84C0020014BD888704700BF16
:102AB000C84C002007B5114B1A7A10B951070ED532
:102AC00001E052070BD402A85B8840F8083DFFF7ED
:102AD000BDFF009A01239340C0F808350AE002A820
:102AE0005B8840F8043DFFF7B1FF019A0123934052
:102AF000C0F80C3503B05DF804FB00BF844400202F
:102B000007B50B4B02A85B8840F8043DFFF79EFF1A
:102B1000019BD0F80415012202FA03F323EA010213
:102B20000B40C0F80825C0F80C3503B05DF804FB75
:102B30008444002030B52D4C182585B005FB004598
:102B400004A86B8840F80C3DFFF780FF019B03F55C
:102B5000E073032240F823202B7A13F0040F04A81B
:102B60006B8809D040F8083DFFF770FF029A0123F7
:102B70009340C0F8083508E040F8043DFFF766FFD1
:102B8000039A01239340C0F80C35194B608EB4F8BA
:102B90004A10628BC3F86005C3F86415C3F8682552
:102BA0004FF0FF32C3F86C250522C3F80C251148FD
:102BB00000220321C3F80425C3F80825C3F8101523
:102BC000FF21C1800C4904248A60CA6008608C809F
:102BD000C3F82005C3F82445C3F82825C3F82C25DD
:102BE0000122C3F8002505B030BD00BF8444002099
:102BF00000C00140C84C0020D04C0020034B1B7883
:102C00001BB1034B187860F033B87047E14C0020DB
:102C1000E04C0020BFF34F8F0549064BCA6802F411
:102C2000E0621343CB60BFF34F8F00BFFDE700BFEF
:102C300000ED00E00400FA0534DF704735DF70472F
:102C400033DF704770B5EFF3108572B60D4A9468A4
:102C5000012394B993600C4B0C49D3F88060314048
:102C600011600A49C3F88010D3F8841051604FF006
:102C7000FF32C3F88420047000E0037005B962B627
:102C8000002070BDD444012000E100E0FC06FFBD3F
:102C900018DF704713DF704700F1804000F5C04037
:102CA000002382B0036003680193019B02B0704768
:102CB00010B503682F2B044604D9074A00210A20C7
:102CC00023F012F923681F2B83BF03F01F03236037
:102CD00002484FF0A04010BD85BC03000003005027
:102CE00008B53BF00FF9BDE808401BF065BC0000DB
:102CF00073B5144B5B68C3F3080304460E46EBB987
:102D000002AD042245F8043D40F2DA6029460CF099
:102D10002AF8A8B9019B23420CBF01220022B2422B
:102D20000ED016B123EA040400E01C43042240F252
:102D3000DA61284601940CF048F801E04FF0FF30CA
:102D400002B070BD00ED00E007B502A8002400F855
:102D5000054DFFF777FF5EF029FF1D4BC3F80045D7
:102D60000CF00EFA1B4B4FF00042C3F808234FF44F
:102D7000BE70FFF791FFFFF765FE90F8813090F885
:102D8000802003F01F0302A843EA421340F8043DE9
:102D9000FFF78EFF019B104A03F5E07340F82320F4
:102DA0000E4BC3F8004503F5A043C3F8004503F5F7
:102DB0008053C3F8004503F53043C3F80045FFF7DF
:102DC0003FFF20B1064A21460A2023F08DF8FEE796
:102DD00000300140006000400400020000C00140DB
:102DE00085BC03001EF0040F0CBFEFF30880EFF367
:102DF00009808169004A1047592E03001FB50190D0
:102E00000291012003920021034A019B029B039B34
:102E100023F06AF8FEE700BF85BC030008B5034A4B
:102E20000021012023F060F8FEE700BF85BC03000D
:102E300008B5034A0021042023F056F8FEE700BF3E
:102E400085BC030008B5034A0021052023F04CF897
:102E5000FEE700BF85BC030000B589B0036800939E
:102E60004368019383680293C368039303690493DF
:102E70004369059383690693C3690793054B996A70
:102E800011F0007101D0FFF7DDFF034A012023F0AC
:102E90002BF8FEE700ED00E085BC0300014B024A81
:102EA000DA63704700400020E12C03001FB54FF0AB
:102EB0000053114A1A604FF0FF325A600F4B002442
:102EC0009C601022214668467CF041F90223684646
:102ED0000093FFF7DDFE20B1094A21460A2023F0C6
:102EE00003F80548FFF7D6FE62F0D8FC62F054FD07
:102EF0000028FBD004B010BD0040002000ED00E031
:102F000085BC03001FB5042008F0E0FE194B1A49E8
:102F100001221A70194B1A4A1846D21A7CF0F1F89D
:102F2000184A90600CF06CF828F0FCFD002001F0CD
:102F300009FBFFF7BBFF08F0ABFD0BF08FF928F0A2
:102F400077FE6FF07F4023F087F8E72023F0EAF860
:102F50004FF4442103220E238DE80E0000224FF48B
:102F600040334FF09151104628F022FF05B05DF834
:102F700004FB00BF4CB30020000003000040002011
:102F80000042002000ED00E008B50BF099FB08B10D
:102F9000FFF740FE08BD38B505460020FFF7F0FA00
:102FA00004460120FFF7ECFA854204D9AC4234BF55
:102FB0000020012038BD012038BD000008B5024BBB
:102FC00058609960FFF726FE80F3032008B5074B91
:102FD0006FF055021A735A7328F046FE044B6422B0
:102FE0005A6000229A60FFF715FE00BFC0F303206D
:102FF00080F3032008B5044B45F6FE206E21002225
:1030000083E80700FFF706FE80F3032008B50B4CAA
:1030100050B14FF6FF736362094B4FF0FF321A72E3
:103020005A7228F021FE02E04EF6FA53236078230C
:1030300063600023A360FFF7EDFD00BF80F3032072
:10304000C0F3032008B518B9CB0701D4FFF77CFE05
:103050006FF0770008BD000007B5154A526901926C
:103060000132034602D101A8FFF7E6FD581E0528EC
:1030700019D8DFE800F00306090C131301980128A2
:1030800008E00198042805E00198022802E0019870
:10309000B0F5803F14BF0020012005E00198B0FA90
:1030A00080F0400900E0002003B05DF804FB00BFA1
:1030B000C0F3032010B1044B1B68036011B1024B35
:1030C0005B680B6000207047E84C0020002228F06D
:1030D000DDBD704710B5064B1A681C4632B14FF083
:1030E000FF31206839F0A2FE0028F8D010BD00BFE3
:1030F000E44C0020024B186808B139F01ABD704743
:10310000E44C00201E4B10B501241C70FFF73CFF5F
:103110000220FFF7A1FF1B4940B11B4B5A680A6010
:103120009A684A6000225A609A6021E00320FFF703
:1031300093FF08B13C2318E00420FFF78DFF08B18E
:103140001E2312E00520FFF787FF08B128230CE0BB
:103150000620FFF781FF08B1322306E02046FFF783
:103160007BFF08B1142300E00A230B6000234B60AF
:103170004FF0FF30FFF762FDBDE810401BF0C0BB11
:10318000E24C0020E84C002080F30320FFF7BABF98
:1031900007B5042039F0B0FC074B08491860084B0C
:1031A0000193022300934FF4C062002305483AF0D4
:1031B00028F83AF0E5F8FEE7E44C002054830B00D1
:1031C000F04C00208D310300042807B50DD00628EF
:1031D0000DD003280FD102A84B4200F8013D012277
:1031E00040F6A1310BF0F1FD07E0012000E00220E4
:1031F000FFF77EFD01E04FF0FF3003B05DF804FB08
:10320000032807B517D3042817D9062813D10D4B67
:103210005B68C3F3080373B902A9042241F8043DB3
:1032200040F2DA600BF09FFD28B9019880F00200AF
:10323000C0F3400002E0002000E0012003B05DF890
:1032400004FB00BF00ED00E0013809289CBF024BE1
:1032500043F82010704700BF80F30320013809288D
:103260009ABF034B53F820004FF0FF30704700BF68
:1032700080F3032010B58AB0044668467BF070FFE7
:10328000089B636023880F2B17D90D480D49132B1A
:10329000A0EB0101E16010D9009A2261172B0CD933
:1032A000059A62611B2B08D9074A1F2BA2EB00026B
:1032B000A26102D904F08CFAE06100200AB010BDCE
:1032C00000E803200846012000E8032020B101287F
:1032D00005D1044B987C7047024B988870470020BA
:1032E000704700BFC0F3032072B600207047000093
:1032F00010B5044630B9DC2A04D104487BF001FF44
:10330000204610BD4FF0FF3010BD00BF00F003207D
:1033100038B50D46044658B9DB2A09D906490A884A
:10332000DC2A05D11A6028467BF0EBFE204638BD2A
:103330004FF0FF3038BD00BF00F00320EFF31180E5
:10334000402383F31188704780F311887047000091
:1033500010B1024B1B68036001487047EC820B0000
:1033600000220B004268436902B102221A707047C2
:1033700013B5104C13462278BAB90122227000947A
:103380000A4601460C4861F04AFF48B92378012BF0
:10339000FCD0084B1878003018BF0120404201E0F3
:1033A0004FF0FF300023237001E04FF0FF3002B0F8
:1033B00010BD00BFF44C0020E444002010B50CF018
:1033C000E3F800220549064861F020FF04460CF0AE
:1033D000F1F8201C18BF0120404210BDA4130C00BE
:1033E000E444002073B504460D4616460CF0CCF8B4
:1033F000064B00933246064B294620460CF07FF9D7
:1034000004460CF0D7F8204602B070BDF1F6030078
:10341000713303002DE9F041164C074688460CF045
:10342000B3F82378254603F0FF06E3B9012327F418
:103430007F6123704246234621F00F010E4861F060
:1034400026FF18B126706FF001040EE02A78094BB0
:10345000012AFBD01A7802F0FF0432B100221A7060
:103460006FF0020401E04FF0FF340CF0A3F82046A7
:10347000BDE8F081F44C0020E444002070B505461E
:103480000C4616460CF080F83246294620467BF062
:1034900038FE0CF08FF8002070BD000010B50368F6
:1034A0002F2B044604D9074A00210A2022F01CFDD4
:1034B00023681F2B83BF03F01F03236002484FF0D4
:1034C000A04010BD85BC0300000300500B46114610
:1034D000024618465FF072B82DE9F843904604465C
:1034E00089460CF0C3F8B8F1000F0CBF4FF48057B9
:1034F0004FF480370026B4FBF7F47C43B1450CD081
:10350000214640465FF0AEF8054638B95FF038F81E
:103510000028FBD13C440136F0E700250CF0C8F848
:103520002846BDE8F883000070B58CB00CA81124C3
:1035300040F8244DFFF7B2FF039B03F5E07303222D
:1035400040F823200CA8012640F8284DFFF7A6FFDD
:10355000029B234C06FA03F3C0F808350CA8152388
:1035600040F8203DFFF79AFF049B03F5E073042227
:1035700040F823200CF07AF80FCC07AD0FC50022DD
:1035800023682B60114607A85EF07EFE024608BB4A
:1035900054F8040F059040238DF807301146A38896
:1035A000ADF8183005A85EF029FF024690B99923BE
:1035B000014605A88DF814305EF020FF024648B998
:1035C00002230DF1070105A88DF814608DF8153060
:1035D0005EF014FF0CF06CF800200CB070BD00BF62
:1035E000C81D0B0073B504460D4616460CF03EF898
:1035F000084B00932046084B324629460CF07FF8D2
:1036000004465EF0BDFF0028FBD10CF051F82046C7
:1036100002B070BDF1F60300CD3403002DE9F3478D
:103620000F4607F1030929F003091646C7EB090401
:1036300005460CF01BF8B44294BF341BB41B34F0A5
:1036400003041BD025F003084246214648465EF09D
:10365000DFFF824660BB5EF093FF0028FBD14F4541
:1036600001D1454507D0C8EB0501641A22464944FB
:1036700038467BF051FD25442744361BBEB1A919BD
:1036800025F003040331091B224621F0030168469B
:103690005EF0BEFF824658B95EF072FF0028FBD193
:1036A000291B3246694438467BF02BFD00E0B246C8
:1036B0000BF0FEFF504602B0BDE8F0870022FFF796
:1036C0000BBF0128F8B506460C4617461D461DD10E
:1036D000CB18B3F5007F1CD80BF0C8FF0022314691
:1036E000B1205EF037FF30B920462A463946FFF751
:1036F00095FF044601E06FF0020400220121C12081
:103700005EF028FF0BF0D4FF2046F8BD4FF0FF30ED
:10371000F8BD6FF00100F8BD0CB400B50138C0B2BF
:1037200003288DB098BF0C4B0C4998BF18560FAAB0
:10373000039201924FF020030E9A049300924FF0EF
:10374000000388BF012004AA059323F041FF0DB0B8
:103750005DF804EB02B07047B0830B00AFD10B00F3
:1037600000F05EBF08B500F013FB00F0DBF8044B7F
:103770001B780BB900F049FBBDE8084000F085BF9D
:1037800048B3002070B5164E337886B00BB1FFF702
:10379000E9FF01211F2008F037FC0121202008F05B
:1037A00033FC00211F2008F03EFC0121202008F0FE
:1037B0003AFC00F057FF33780BB900F025FB094DB8
:1037C00000F08AF800F0E3FA0FCD01AC0FC42B68CB
:1037D000236001A800F026FF0023337006B070BDFF
:1037E00048B30020E41D0B0010B5044600F070F94A
:1037F00000F0D2FA2046BDE8104000F0ADBD000058
:10380000012303FA00F0084A82B0C04352E8003FA7
:103810000193019B03400193019B42E80031002981
:10382000F4D102B0704700BFF04E0020074A82B0CA
:1038300052E8003F0193019B23F001030193019B98
:1038400042E800310029F3D102B07047F04E002069
:1038500007B50123094A03FA00F052E8003F01933B
:10386000019B03430193019B42E800310029F4D1FD
:1038700011F0A0FC03B05DF804FB00BFF04E002087
:1038800037B54FF080530C46196E5D6E002242EA48
:10389000050002AB63E9020103CB2060616003B065
:1038A00030BD07B58DF8041001A8090A8DF8051080
:1038B0003BF0A9FA03B05DF804FB08463BF0A5BA5B
:1038C00007B58DF8041001A8090A8DF805103BF022
:1038D0009EFA03B05DF804FB08B50C4B01221A7088
:1038E0000B4B0C4A1A600C4A002313700B4A194602
:1038F00099501433B3F5A07FFAD11422002108485F
:103900007BF025FCBDE808403BF087BA504E002014
:10391000D44E0020524E0020E84E0020104D0020D2
:10392000F84C002008B53BF0B0FA3BF09BFA024B94
:1039300000221A6008BD00BFF04E0020034B1A7829
:1039400012B10020187070470D207047504E0020B3
:1039500008B53BF09AFA10B1FFF768FF03E0FFF7F4
:1039600065FFFFF775FF002008BD000008B5084699
:103970003BF034FA064B93F900003BF040FA3BF081
:1039800087FAFFF753FF00280CBF0D20002008BD69
:103990000C4D002070B50B680A7903F8012C0C4619
:1039A000064648793BF01AFAA17B2068C1F3400132
:1039B000013819B13BF0B6FA002504E03BF06EFA8D
:1039C00080F00100C5B2FFF731FF1DB92146304636
:1039D00045F00BFD284670BD00487047D44E0020CE
:1039E0003BF088BA0B2070473BF092BA08463BF098
:1039F00091BA07B58DF80410090A8DF8051001A8D1
:103A000000213BF089FA00280CBF0320002003B0FE
:103A10005DF804FB08B5084601213BF07DFA00285B
:103A20000CBF0320002008BD07B58DF80410090A5B
:103A30008DF8051001A800213BF070FA00280CBF9A
:103A40000A20002003B05DF804FB08B508460121F8
:103A50003BF064FA00280CBF0A20002008BD0020BB
:103A60003BF05EBA01203BF05BBA00004FF47A7382
:103A700010B55A430A4C0B4B226008461970FFF7E9
:103A8000D5FE3BF0ABF920683BF014FA18B10520E5
:103A9000FFF7B6FE02E00520FFF7DAFE002010BDBA
:103AA000EC4E0020E94E002021B1034B1B780B7037
:103AB00000207047072070470C4D002008B5034BCD
:103AC000084619703BF09BF9002008BD0C4D002002
:103AD000F8B500243B4D0646274663594BB13046A6
:103AE0000022291945F078FC6059675101383BF0F4
:103AF000E5F91434B4F5A07FEFD1334C23689B076C
:103B000015D5324D0120FFF77BFE2B683049002B85
:103B10004FF00003304614BF2A461A4645F06EFCAB
:103B2000286820B101383BF0C9F900232B602368D5
:103B30005F0708D50220FFF763FE0F230022244908
:103B4000304645F05BFC23681D0708D50320FFF7CE
:103B500057FE0E2300221E49304645F04FFC2368D5
:103B6000D80608D50420FFF74BFE1A4B00211A781F
:103B7000304645F031FC2368590608D50620FFF78A
:103B80003FFE154B304693F9001045F045FC236885
:103B9000DA0705D53BF079F910B10020FFF730FEC8
:103BA00023689B060DD50D4B18783BF017F90C4B8D
:103BB00018683BF07FF920B10520BDE8F840FFF719
:103BC0001FBEF8BD104D0020F04E0020F84C002024
:103BD000D44E0020E84E0020F44E0020E94E002094
:103BE000EC4E00202DE9F84391461E4A06468846D1
:103BF0000023142000FB03F51A4FA95819BB7C19A8
:103C0000142220467BF0A3FA731C7B513378237176
:103C100084F80C8084F80D903BF0EFF860713BF075
:103C200077F9D0B100F0B6FB00234FF47A72054665
:103C3000FDF73AF8C0EB4013206100EB8300A5EBE1
:103C4000C000E08109E00133102BD3D1064B074AB5
:103C5000074840F2BA210AF061FABDE8F84311F0D2
:103C6000A9BA00BF104D002009840B00CF830B00C0
:103C7000E7830B00013808B50E4B082813D8DFE89E
:103C800000F00507090B0B0B12120B00122204E0C7
:103C9000112202E0162200E001221A700420BDE881
:103CA0000840FFF7D5BD044B044A054840F2E9211E
:103CB0000AF034FAE84E002029F80B0037840B0094
:103CC000E7830B0010B50E4C844206D00D4B0E4A14
:103CD0000E4840F2F1210AF021FA0D4C09B9216099
:103CE00008E0481C206009782171227363733BF05F
:103CF00084F860710120BDE81040FFF7A9BD00BF46
:103D0000514E00201F840B00B4830B00E7830B008F
:103D1000F84C002008B5104B834204D00F4B104ADA
:103D200040F2053115E005290FD8012303FA01F10E
:103D300011F02C0F04D111F0120F06D0022000E078
:103D40000320BDE80840FFF783BD064B044A40F25C
:103D5000153105480AF0E2F9514E00201F840B008E
:103D600051840B0029F80B00E7830B0008B53BF0EA
:103D700050F8034B1870BDE808400620FFF768BDF7
:103D8000F44E00206FF0630070474CDF70477047BF
:103D900070470000000000002DE9F041124CDFF8F0
:103DA0004C80256800F0F6FAD8E90023821A61EB0E
:103DB000030306460F460AA1D1E90001994208BF54
:103DC000904204D22046FFF7E0FFC8E9006723686D
:103DD0009D4203D0BDE8F0413BF013B8BDE8F0814F
:103DE00080C3C90100000000004F0020F84E0020F1
:103DF00070477047034B04201B6893FBF0F040B200
:103E0000704700BF004F002070477047F8B51D4B4A
:103E1000440B44EAC144A4FB03454A0B03FB02558F
:103E20002E0F220F42EA051243F60957750245EAA2
:103E3000D2555402A2FB0723821A07FB063361EB1B
:103E4000030311480021994208BF904205D20F4B4D
:103E50000F4A104883210AF061F90F4840F23141BE
:103E6000514300FB0311A2FB00234FF0FF30121857
:103E70000B4447F6FF714B41D80B00194FF000017E
:103E80006941F8BDD07B6308452C160092840B0075
:103E900040850B00A0840B007B2DE8BD00F1402085
:103EA00000F500300023036082B003680193019B9A
:103EB00002B0704713B528490122D1E84F3FDBB269
:103EC0008DF807309DF807303BB1BFF32F8F234BA0
:103ED0001A68234B002A34D036E0C1E8432F002B68
:103EE000EBD1204B0222C3F80823BFF35F8F03F509
:103EF00082731B491B684BB10B6801330B60BFF326
:103F00005F8F4FF48270FFF7C9FF012308681549DE
:103F1000134A022401304008C1F80443BFF35F8F05
:103F20000D4900240C70A3B11368D90705D40E4BBA
:103F30000E4A0F48EF210AF0F1F8136801331360BD
:103F400007E01A68D20702D51868023000E0186846
:103F5000400802B010BD00BF184F002004410240CD
:103F6000084F00200040024006850B007F840B00B4
:103F70001E850B002DE9F04180460E46FFF79AFFA3
:103F80000746BFF35F8F084DD5F80445BFF35F8F39
:103F9000FFF790FFC8F80000874218BFD5F8044526
:103FA0003460BDE8F08100BF0040024008B5084B16
:103FB0000849020113445868C1F84803D868C1F899
:103FC00008031889FFF76AFF034B0021995408BDC5
:103FD0005C850B0000400240304F00202DE9F04787
:103FE000374C4FEA021904EB09069046354AF5684A
:103FF000C2F808537568C2F84453D3E900239042CD
:104000001546A24606D9841A002C03DA003243F181
:10401000FF3307E0A84205D22D1A002D02DA003244
:1040200043F1010300250E184FF0000445F100078D
:10403000A41943EB0705B8F1000F06D14FF47A73CA
:10404000A4FB030103FB051101E020462946FFF70D
:10405000DDFE20F07F46B8F1000F06D14FF47A73F1
:1040600003FB05F2A4FB0345154420462946FFF750
:10407000CDFE43F60954A0FB042304FB013340F2B8
:10408000FF140025101943EB0501B8F1000F04D00F
:10409000430A43EAC153490A05E000234FF4FA22D8
:1040A000FCF702FE0346084A4A4493605AF8093076
:1040B000D16003F5A873034A42F82360BDE8F08796
:1040C0005C850B0000400240304F002013B50446D1
:1040D00001A96846FFF74EFF019843F6095140F2E7
:1040E000FF120023E1FB0023500A40EAC350590AA3
:1040F000009A054BE3FB020124B94FF47A720023C6
:10410000FCF7D2FD02B010BD0080841EF8B51D4C36
:1041100005016319064618890F46FFF7BFFE3046B2
:10412000FFF7D4FF3FB9184B2B44D3E90223994240
:1041300008BF904225D32C44144B6268C3F848232F
:10414000E268C3F80823032E14D8DFE806F00A0A51
:104150000206BDE8F8403EF0D3B8BDE8F8403DF0B7
:1041600079BA094A01235355094A1370BDE8F8404A
:1041700011F020B8074B084A084840F2531109F0E3
:10418000CDFFF8BD5C850B00304F002000400240A1
:104190000C4F002029F80B006C840B001E850B00CF
:1041A000F0B585B005460E46684601A91446FFF7EE
:1041B000E1FE019843F6095140F2FF120023E1FBB2
:1041C0000023500A40EAC350590A009A244BE3FBEB
:1041D000020124B94FF47A720023FCF765FD04ABA9
:1041E00063E90201224631462846FFF7F7FE1D4BE0
:1041F000019AD3F804359A4203D001A96846FFF723
:10420000B9FE019B43F60950991C40F2FF120023AE
:10421000E0FB0123500A40EAC350590A009A104BB0
:10422000E3FB020124B94FF47A720023FCF73CFD52
:104230000D4A23011A44D2E90267B94208BFB042CD
:1042400005D301212046FFF761FF40BF05E0074A83
:104250001344DA68034BC3F8042305B0F0BD00BF74
:104260000080841E00400240304F00205C850B001F
:1042700008B5402200212F487AF069FF2E4B2F49C4
:10428000002018602E4B002218700023C1E9002383
:104290002C4908602C49C1E900235FF099FA5FF0CE
:1042A0000BFB0028FBD0294BC02283F824231022CB
:1042B000C3F884215A60264A0021C2F808154FF439
:1042C0008270FFF7EBFD0223C2F844334FF4A07075
:1042D000C2F80433FFF7E2FD4FF48033C2F84833ED
:1042E0004FF4A270C2F80833FFF7D8FD4FF4003343
:1042F000C2F848334FF4A470C2F80833FFF7CEFD7C
:104300004FF48023C2F848334FF4A670C2F8083344
:10431000FFF7C4FD4FF40023C2F84833C2F8083356
:10432000EFF3108372B6012010600A4A516083F3E4
:10433000108808BD304F0020084F0020284F002073
:10434000184F0020044F0020104F002000E100E033
:1043500000400240001000E0F8B50C4C0C4E054641
:1043600027460023337022781AB1284623703EF086
:1043700059FC3B7C23B10023284623743EF080FC8B
:10438000034B1B78002BECD1F8BD00BF304F002051
:104390000C4F00200120FFF799BE08B5FFF7FAFF88
:1043A0004FF47A720023FCF77FFC08BD08461146E3
:1043B0000022FFF7F5BE0020FFF7F8BD08461146C2
:1043C0000122FFF7EDBE0120FFF7F0BD70477047F7
:1043D000044B4FF48022C3F80823BFF34F8FBFF381
:1043E0006F8F704700400240024B4FF48022C3F8A9
:1043F000042370470040024008B5FFF7CBFF08BD1B
:10440000FFF7FABF1F2070470222FFF7C9BE022044
:10441000FFF7CCBD2DE9F043164F174E85B040F2A3
:10442000FF184FF00009694601A8FFF7A3FD009AA5
:1044300043F6095340464946E3FB0201440A019B07
:1044400044EAC1544D0A20462946E7FB030104AB68
:1044500063E9020103223E21FFF7C0FD4FF4002370
:10446000C6F80433D6F80425009B9A42DBD105B088
:10447000BDE8F0830080841E0040024037B504464A
:1044800003200D46FFF722FE02AB63E9020103227F
:1044900029462046FFF7A2FD034B4FF40022C3F844
:1044A000042303B030BD00BF004002400320FFF7EB
:1044B0007DBD0000004870474C410240014B986BA5
:1044C000704700BF304F002070B5184B1B68A3B178
:1044D000174B0222C3F80823FFF7ECFCEFF310841C
:1044E00072B60120FFF7F2FD124BC3E90001124B37
:1044F0005A68124B1A6084F31088114D0C4E002438
:10450000D6F80423EB681A420AD02B8903F1402322
:1045100003F500331B681BB10021E0B2FFF7F6FD85
:104520000134042C05F11005EAD170BD04410240AC
:1045300000400240104F0020001000E0044F002017
:104540005C850B0008B520B1D0E90201034BC3E93B
:104550000001FFF78DFE002008BD00BF204F0020A6
:10456000F0B5224C022587B0C4F80853BFF35F8F23
:104570000120FFF7ABFDCDE902011D4B1B68009345
:104580001C4BD3E90023CDE904231B4B5B6801934B
:10459000C4F80453DDE90245184BDDE904671A68E5
:1045A000174BB2FBF3F2009B0199A41BA4FB02453D
:1045B000C91A0B1B134C0021A2FB04458D4208BFF6
:1045C0009C42184603D2DB43584261EB01010E4B7B
:1045D000DDE90245D3E900670023FCF715FB00196C
:1045E00069418019794107B0F0BD00BF0040024029
:1045F000044F0020104F0020001000E0044700206E
:1046000040420F0000400D03204F002008B500205D
:10461000FFF7A6FF4FF47A720023FCF745FB08BDB5
:104620003AF058BA10B5044686B01422002101A809
:104630007AF08DFD2368019363680293A368039366
:10464000A389ADF81030E389ADF8123001A8238AB0
:10465000ADF814303AF08AFA06B010BD30DF70477A
:1046600031DF704707B502AB002243F8042D042167
:104670001846FFF7F5FF10B1019A002AF7D001980C
:104680007BF0E6F903B05DF804FB70477BF008BAF5
:1046900013B50A460446D8B1D1B100230DF1070085
:1046A000FFF7DCFF9DF80700D11A8842C8BF8DF8DC
:1046B00007109DF8071039B1E018FFF7D1FF48B98E
:1046C0009DF807100B449BB29342E7D3002002E011
:1046D000072000E0012002B010BD0000024A0021C6
:1046E0000A2021F001BC00BF85BC030038F08CBE5D
:1046F00008B539F0F3FB012008BD39F0F9BB000023
:1047000010B50446042038F0F7F90C4A206038B997
:10471000B2F81A310133A2F81A314FF0FF3010BD50
:10472000B2F81631B2F8181101339BB29942A2F8CF
:10473000163138BFA2F81831002010BD28350120ED
:104740000148FFF7DDBF00BF744F00204FF0FF317D
:10475000006838F06BBB006838F0EBB938B503225D
:1047600004460D460120002138F01AF9104A206055
:1047700038B9B2F814310133A2F814314FF0FF30D8
:1047800038BDB2F81031B2F8121101339BB2994220
:1047900038BFA2F81231012DA2F8103105D1002343
:1047A0001A461946206838F01FF9002038BD00BFAE
:1047B0002835012000231A461946006838F014B93C
:1047C00008B531B94FF0FF31006838F095FA012093
:1047D00008BD006838F090FA00280CBF4FF0FF3099
:1047E000012008BD10B5064AB2F81031013BA2F80D
:1047F00010310446006838F02FFB0023236010BD01
:104800002835012010B5002204460846042138F05E
:10481000C7F80C4A206038B9B2F820310133A2F849
:1048200020314FF0FF3010BDB2F81C31B2F81E112C
:1048300001339BB29942A2F81C3138BFA2F81E3155
:10484000002010BD2835012013B502AC002344F828
:10485000041D1A462146006838F0C6F801281FBF1B
:10486000054AB2F820314FF0FF3001330CBF002071
:10487000A2F8203102B010BD2835012013B50C4636
:1048800001B901AC32B94FF0FF322146006838F06F
:10489000B7F908E02146006838F0B2F918B920608D
:1048A0004FF0FF3000E0012002B010BD13B50C4600
:1048B00001B901AC00222146006838F0A1F918B90D
:1048C00020604FF0FF3000E0012002B010BD00007A
:1048D00008B5006838F0C0FA034AB2F81C31013B51
:1048E000A2F81C3108BD00BF283501201FB50C46B9
:1048F000C3F38F0103AB0193069B009313460A4653
:104900000146204638F07DFC039804B010BD00003D
:1049100010B5064C0648FFF719FF23780BB938F09D
:104920009DFF23780133237010BD00BF784F002016
:10493000744F0020034A04481378013B1370FFF7BB
:104940000ABF00BF784F0020744F002008B538F030
:1049500085FF014B186008BD704F002008B539F085
:10496000BDFA39F0C5FA044B1B681BB1BDE808401D
:1049700038F074BF08BD00BF704F002003680B44BF
:1049800003601078994294BF0346431C137070472C
:10499000036810B514788B4238BF013C147003686B
:1049A0005B1A036010BD30B58FB0012300210446AF
:1049B000029305A8092324228DF803100393049081
:1049C0007AF0C5FB102120466EF00AF80546002853
:1049D00040F04D82A3681A68196A019201A80DF18E
:1049E0000302FFF7CBFFA3680DF10302596A01A888
:1049F000FFF7C4FFA3680DF10302D96A01A8FFF70E
:104A0000C7FFA3680DF10302196B01A8FFF7C0FFF0
:104A1000A3680DF10302596B01A8FFF7B9FFA36862
:104A20000DF10302996B01A8FFF7B2FFA368019A89
:104A30001A609DF90310A3688DF803505B68019319
:104A400000290DF1030204DA494201A8FFF7A0FF93
:104A500002E001A8FFF792FFA3680DF10302596A73
:104A600001A8FFF78BFFA3680DF10302996A01A863
:104A7000FFF784FFA3680DF10302196B01A8FFF78C
:104A800087FFA3680DF10302596B01A8FFF780FFB0
:104A9000A3680DF10302996B01A8FFF779FFA368E2
:104AA0000DF10302D96B01A8FFF772FFA368019A09
:104AB0005A60A3689DF903109B68019300239942F3
:104AC0008DF803300DF1030204DA494201A8FFF723
:104AD0005FFF02E001A8FFF751FFA3680DF1030299
:104AE000996A01A8FFF74AFFA3680DF10302D96A8A
:104AF00001A8FFF743FFA3680DF10302596B01A85A
:104B0000FFF746FFA3680DF10302996B01A8FFF7B9
:104B10003FFFA3680DF10302D96B01A8FFF738FF2F
:104B2000A368019A9A60A3689DF90310DB6801935A
:104B3000002399428DF803300DF1030204DA494253
:104B400001A8FFF725FF02E001A8FFF717FFA36800
:104B50000DF10302D96A01A8FFF710FFA3680DF158
:104B60000302D96A01A8FFF709FFA3680DF1030248
:104B7000196B01A8FFF702FFA3680DF10302196B7F
:104B800001A8FFF7FBFEA3680DF10302596B01A812
:104B9000FFF7F4FEA3680DF10302D96B01A8FFF73C
:104BA000F7FEA3680DF10302196A01A8FFF7F0FEF2
:104BB000A3680DF10302596A01A8FFF7E9FEA36893
:104BC000019ADA60A3689DF903101B690193002321
:104BD00099428DF803300DF1030204DA494201A82D
:104BE000FFF7D6FE02E001A8FFF7C8FEA3680DF1AB
:104BF0000302196B01A8FFF7C1FEA3680DF10302C0
:104C0000196B01A8FFF7BAFEA3680DF10302596BF7
:104C100001A8FFF7B3FEA3680DF10302596B01A8C9
:104C2000FFF7ACFEA3680DF10302996B01A8FFF733
:104C3000A5FEA3680DF10302596A01A8FFF7A8FEBB
:104C4000A3680DF10302996A01A8FFF7A1FEA3680A
:104C5000019A1A61A3689DF903105B69019300230F
:104C600099428DF803300DF1030204DA494201A89C
:104C7000FFF78EFE02E001A8FFF780FEA3680DF1AA
:104C80000302596B01A8FFF779FEA3680DF1030237
:104C9000596B01A8FFF772FEA3680DF10302996B2F
:104CA00001A8FFF76BFEA3680DF10302996B01A841
:104CB000FFF764FEA3680DF10302D96B01A8FFF7AB
:104CC0005DFEA3680DF10302996A01A8FFF760FE7B
:104CD000A3680DF10302D96A01A8FFF759FEA36882
:104CE000019A5A61A3689DF903109B6901930023FF
:104CF00099428DF803300DF1030204DA494201A80C
:104D0000FFF746FE02E001A8FFF738FEA3680DF1A9
:104D10000302996B01A8FFF731FEA3680DF10302AE
:104D2000996B01A8FFF72AFEA3680DF10302D96B66
:104D300001A8FFF723FEA3680DF10302D96B01A8B8
:104D4000FFF71CFEA3680DF10302996B01A8FFF7A2
:104D500015FEA3680DF10302596B01A8FFF70EFEC3
:104D6000A3680DF10302196A01A8FFF711FEA368F9
:104D70000DF10302596A01A8FFF70AFEA368019A20
:104D80009A61A3689DF90310DB690193002399429E
:104D90008DF803300DF1030204DA494201A8FFF750
:104DA000F7FD02E001A8FFF7E9FDA3680DF103029A
:104DB000D96B01A8FFF7E2FDA3680DF10302D96BDF
:104DC00001A8FFF7DBFDA3680DF10302D96B01A871
:104DD000FFF7D4FDA3680DF10302196A01A8FFF7DC
:104DE000CDFDA3680DF10302996A01A8FFF7D0FD7C
:104DF000A3680DF10302D96A01A8FFF7C9FDA368F2
:104E00000DF10302196B01A8FFF7C2FDA3680DF1B4
:104E10000302596B01A8FFF7BBFDA368019ADA6191
:104E20009DF90330A26823EAE37313620023019320
:104E3000082362680133934204D2A268019942F8C0
:104E40002310F6E79DF90320002A10DA039B04994A
:104E500003F18043013B524241F823202046224681
:104E600002A96EF02DF910B94FF0FF3323602846E8
:104E70000FB030BD38B50D46044601F04BF9032D97
:104E8000257027D1164B174A6366E2600823164A3D
:104E9000A360236262622365E362A363134A144B37
:104EA00062650125134AE363134B2263A3646560C3
:104EB000E561E564A562656325646564201D6DF0A8
:104EC0009DFEA06504F14C006DF098FE2566E0653E
:104ED000002038BD204601F01DF9084838BD00BF4C
:104EE000A74903001C860B009C850B00DC850B008A
:104EF000BC850B00FC850B00F844002080B1FFFF4F
:104F000008B50AF05DFB044B0122C3F80025034BF2
:104F10004FF480625A6008BD00A0025000E100E03A
:104F2000064B0022C3F80025054B4FF48062C3F8FE
:104F30008420C3F884210AF049BB00BF00A00250BE
:104F400000E100E0F42200217AF001B910B5044636
:104F5000FFF7D6FF204675F011FEBDE81040FFF7C1
:104F6000DFBFF4227AF0CDB810B5044609B10123B1
:104F700000E00223C4F8F030FFF7C2FFD4F8F010CD
:104F8000204675F017FD0446FFF7CAFF204610BD06
:104F900070B504460D461646FFF7B2FF3246294665
:104FA000204675F06BFD0446FFF7BAFF204670BD42
:104FB00070B590B0402204460E46684600217AF053
:104FC000C6F8FFF79DFF6946204675F089FD054646
:104FD000FFF7A6FFD4F8F030012B14BF20221C22CB
:104FE000694630467AF08DF8284610B070BD4022F0
:104FF000FFF7CEBF08B50AF0E3FA044B0122C3F86D
:105000000025034B4FF480625A6008BD00A0025097
:1050100000E100E0064B0022C3F80025054B4FF4E9
:105020008062C3F88420C3F884210AF0CFBA00BF9D
:1050300000A0025000E100E070B5051D04460E46D8
:105040004C22002128467AF082F804F150032367AD
:10505000A667FFF7CFFF0023314628461A4677F0B0
:1050600051FEBDE87040FFF7D5BF10B500210446E2
:105070004FF4CA727AF06BF820460021BDE8104068
:10508000FFF7DABF10B50446FFF7B4FF201D77F035
:1050900079FFBDE81040FFF7BDBF38B507320446C1
:1050A000D20825464267503045F8700F7AF029F84B
:1050B000FFF7A0FF08232A460021201D77F060FE9D
:1050C0000446FFF7A7FF204638BD0129F8B504467E
:1050D00016461F4600F1040502D1836F8BB903E029
:1050E00011B9836F012B0ED1FFF784FF3B461022CD
:1050F0003146284677F082FE0446FFF78BFF2046B4
:10510000F8BD002100E001212046FFF795FFFFF7E1
:1051100071FF04F1700208230021284677F030FE69
:105120000446FFF777FF002CDED0E8E74FF4CA72A1
:1051300000217AF00CB8FFF7F9BF0000C02AF0B5E3
:1051400007D0B2F5807F06D0802A40F0DC800A23A9
:1051500002E00C2300E00E23C36700F18403C0F8D3
:10516000803052090024944210D001EB8407BD78AE
:105170007E782D0445EA062511F824603543FE7833
:1051800045EA066543F824500134ECE7C26F0C2A67
:1051900031D00E2A66D00A2A40F0B8805C4F5D4EAE
:1051A0000025DC681A6857F825105140C4F307221F
:1051B0000135B05C220E4140B25C81EA0241E2B2AC
:1051C0000A2DB25C81EA0261C4F3074203F11003C5
:1051D000B25C81EA022253F80C1C1A6082EA0102D6
:1051E00053F8081C5A6082EA01029A6082EA0402BB
:1051F000DA60D6D18AE0464E464D0024586956F80A
:1052000024101A684A40C0F307210134695C4A40FF
:10521000010E082C695C82EA0142C1B203F1180355
:10522000695C82EA0162C0F30741695C82EA01229B
:1052300053F8141C1A6082EA010253F8101C5A60D9
:1052400082EA010253F80C1C9A6082EA010253F8C8
:10525000081CDA6082EA01021A6182EA00025A61DD
:10526000CCD153E02A4E2B480025DC691A6856F849
:1052700025105F685140C4F307220135825C51401C
:10528000220E072D825C81EA0241E2B203F1200383
:10529000825C81EA0261C4F30742825C81EA0221F6
:1052A00053F8182C196081EA070153F8147C5960EF
:1052B00081EA020187EA0107FAB29960825C53F839
:1052C000101CDF6081EA02014FEA1762825C81EA0A
:1052D0000261C7F30722C7F30747825C81EA022114
:1052E000C25D81EA024253F80C1C1A6182EA010293
:1052F00053F8081C5A6182EA01029A6182EA0402A8
:10530000DA61B2D102E06FF01F00F0BD0020F0BD05
:105310003C870B003C860B002DE9F04FD0F8803025
:105320000D681C688E68C06FDFF884A3DFF878E32F
:1053300085EA040B4D685C686C409D6885B07540DB
:105340004010CE68D968013871400190D44E53F8AE
:10535000100F02900198DFF85883DFF848C3002847
:105360004FEA11601F465FFA8BF903F120030390A7
:1053700040F3BF80CB48039F5AF8298050F827702C
:1053800088EA070853F8207C88EA0708C4F307274F
:10539000C5F3074C56F8277088EA07075EF82C809B
:1053A0005FFA84FC87EA08084FEA1B675AF82C90DA
:1053B00050F82770C5F3072C89EA070953F81C7CBD
:1053C00089EA070756F82C90C1F3074C87EA0907CA
:1053D0005EF82C905FFA85FC87EA0909270E5AF8D7
:1053E0002CC050F827708CEA070C53F8187C8CEA14
:1053F0000707C1F3072C2D0E56F82CC050F8255086
:1054000087EA0C07C9B2CBF3074C5AF821105EF8B3
:105410002CC087EA0C0781EA050CCBF3072553F86B
:10542000141C56F82550C4F307448CEA01015EF8B9
:105430002440694081EA040C4FEA1C615FFA88F459
:1054400050F821105AF82440614053F8104C4C4059
:10545000C9F30721FDB256F821105AF825504C40E7
:10546000C7F307415EF8211084EA010B5FFA89F463
:105470004FEA18615AF8244050F82110614053F85F
:105480000C4C4C40C7F307213F0E56F821104C40FE
:10549000CCF307415EF821104C404FEA1961C9F383
:1054A000074950F8211050F827704D4053F8081C58
:1054B0006940CCF307255FFA8CFC56F8255069400B
:1054C000C8F30745C8F307285EF825504D405AF841
:1054D0002C104F4053F8041C794056F8287079403E
:1054E0005EF829707940019F013F01971F6802977C
:1054F00030E70B0E58F829005CF82330DFF8A0E104
:10550000694E4340029883EA0009C4F30723E0B2DE
:105510005EF8233058F8200089EA0309C5F30743F1
:105520005FFA85FA56F8233058F82AA089EA030969
:105530004FEA1B635CF8233058407B684340C5F357
:1055400007202D0E5EF820004340C1F3074056F8B7
:1055500020004340200EC4F307445CF8200056F8B6
:1055600024408AEA000AB8688AEA0000C1F3072AE0
:10557000C9B25EF82AA058F821805CF8251088EAA4
:105580000105F9686940CBF3072580EA0A005EF857
:105590002550694061405FFA89F5444CCBF3074AD6
:1055A00014F805E056F82AA03D690E0E8EEA0505AE
:1055B00014F806E0C3F3072680EA0A0085EA0E65C0
:1055C00014F806E0C0F3074685EA0E2514F806E055
:1055D00085EA0E4EDDB2665D7D6975404FEA19665B
:1055E000A65D85EA0665C0F30726A65D85EA062561
:1055F000C1F30746A65D85EA0646C5B2000E14F85B
:1056000005C0BD698CEA05054FEA136CC3F3074377
:1056100014F80CC0205CE35C85EA0C65C1F3072C30
:10562000C9B214F80CC085EA0C25C9F3074CC9F3BC
:10563000072914F80CC085EA0C4514F801C0F96973
:1056400082F800E08CEA010181EA006114F80900A7
:10565000167181EA002181EA03434FEA1E2151704D
:105660004FEA1E419170310A5171310C9171290A32
:105670005172290C9172190A4FEA1E6E360E15727C
:1056800013732D0E51730020190C1B0E82F803E0CA
:10569000D671D5729173D37305B0BDE8F08F00BF9A
:1056A000648B0B0064930B00648F0B003C860B0033
:1056B00064870B0011461A46FFF72EBE08B509F0A5
:1056C0007FFF044B0122C3F80025034B4FF4806297
:1056D0005A6008BD00A0025000E100E0064B002225
:1056E000C3F80025054B4FF48062C3F88420C3F84B
:1056F000842109F06BBF00BF00A0025000E100E070
:10570000F022002179F023BD10B5044668B1FFF7FF
:10571000D5FF204675F032FAFFF7E0FF2046F02271
:105720000021BDE8104079F012BD10BDF02279F0E3
:10573000E8BC10B50446FFF7C1FF0021204675F014
:1057400039F90446FFF7CAFF204610BD70B504467C
:105750000D461646FFF7B2FF32462946204675F041
:105760008DF90446FFF7BAFF204670BD70B590B0C2
:10577000402205460C466846002179F0E8FCFFF718
:105780009DFF6946284675F0ABF904AE0546FFF764
:10579000A5FF6B4622461C4603CCB4421060516004
:1057A000234602F10802F6D120681060284610B0A6
:1057B00070BD4022FFF7CABF70B500EB81024E08F2
:1057C0000023B342A2F1040209D050F82340156827
:1057D00024BA2DBA40F8235014600133F1E7CA0708
:1057E00041BF013350F8232012BA40F8232070BD86
:1057F000036B2BB1C36B002B0CBF02200120704741
:10580000184670477FB50C4605460C3401A816466D
:105810006DF0C9F8291D224601A86DF0B2FC0546BD
:1058200068B9014620466DF0DBFB01A900280CBFDA
:10583000002206F0010220466DF065F9054601A838
:105840006DF0B8F8284604B070BD000038B54B6E56
:1058500004460D462BB90A1DBDE8384001466DF0DF
:105860001ABF0368002B07DB20466DF0C7F9AB6D4C
:10587000B0EB430F07D904E000216DF0B1FB002825
:10588000F2D0124838BD6B6E20469847E8B904350F
:105890002368002B12DA002120466DF0A1FB68B1CD
:1058A0002A46214620466DF04BFC0028F0D00CE043
:1058B0002A46214620466DF003FC30B92946204691
:1058C0006DF049FB0028F3DA002038BD80B0FFFFFF
:1058D0002DE9F04F8DB0064603AD684689469046E7
:1058E0006DF061F828466DF05EF806A86DF05BF883
:1058F00009A86DF058F8B369002B69D108F11802B6
:10590000114628466DF08BFC0446002840F00682C4
:1059100031462846FFF79AFF0446002840F0FE81F2
:105920002A46414606A86DF00BFC0446002840F0CC
:10593000F581371D394606A86DF00DFB002808DB00
:1059400006A93A4608466DF0BBFB04460028F1D094
:10595000E4E12A46414609A86DF013FC04460028FC
:1059600040F0DC81099B002B09DB09AA06A9284627
:105970006DF055FC0446002840F0D0810BE000217A
:1059800009A86DF02DFB0028EFD009A93A4608467A
:105990006DF0D6FBE2E731462846FFF757FF044695
:1059A000002840F0BB810322294668466DF0A6FC22
:1059B0000446002840F0B281394668466DF0CBFAC3
:1059C00000282DDB3A46694668466DF079FBEFE723
:1059D0004246414628466DF022FC0446002840F02D
:1059E0009D8131462846FFF731FF0446002840F0EC
:1059F00095810322294668466DF080FC0446002804
:105A000040F08C81371D394668466DF0A4FA0028B5
:105A100012DA06F1100A002150466DF0E1FAA0B941
:105A200008F10C0A5246514606A86DF0F8FB0446F0
:105A3000002840F0738151E03A46694668466DF0AF
:105A40003FFB04460028DED068E108F11802114649
:105A500028466DF0E4FB0446002840F05F813146A3
:105A60002846FFF7F3FE0446002840F057812A46F7
:105A7000294606A86DF0D3FB0446002840F04E816D
:105A8000314606A8FFF7E2FE0446002840F04681B2
:105A9000524606A928466DF0C2FB0446002840F095
:105AA0003D8131462846FFF7D1FE0446002840F0EC
:105AB00035812A46694668466DF042FB0446002857
:105AC00040F02C81394668466DF045FA0028A7DB86
:105AD0003A46694668466DF0F3FAEFE7314606A8A4
