:02000002D0002C
:1040000000400D0040530D00000005000C000501AC
:0840100004019301000000000F
:104018007C4F0D0009480A49884208B505D0094A6D
:10402800824202D0121A00F061FF0748074A0021B5
:10403800121A00F066FF014808BD00BF7CE40320A7
:10404800B0520D00E4E40320E4E40320F0E7032089
:1040580070B500F0D1FC074C074BE41AA408002502
:104068001E46A54204D056F8253098470135F8E792
:1040780070BD00BFAC520D0070520D0000F015B8B5
:1040880008B500F01BF8BDE8084000F083BC00F05C
:1040980073B900F079B900F077B90078B0FA80F018
:1040A8004009704701230370704708B500F0B2FB60
:1040B8004FF4E131BDE8084000F0A0BB08B500F0BE
:1040C800A9FB044900F010FD4FF47A70BDE80840E0
:1040D80000F0D2BC904F0D0000F0BAB800F0B8B8AC
:1040E80008B5024B1B681B68019308BD4C0203000E
:1040F80008B5024B1B685B68019308BD4C020300BE
:1041080008B5024B1B681B69019308BD4C020300EC
:1041180008B5024B1B685B69019308BD4C0203009C
:1041280008B5024B1B689B69019308BD4C0203004C
:1041380008B5024B1B68DB69019308BD4C020300FC
:1041480008B5024B1B681B6A019308BD4C020300AB
:1041580008B5024B1B681B68019308BD3C020300AD
:1041680008B5024B1B68DB68019308BD3C020300DD
:1041780008B5024B1B681B69019308BD3C0203008C
:1041880008B5024B1B685B69019308BD3C0203003C
:1041980008B5024B1B689B69019308BD3C020300EC
:1041A80008B5024B1B68DB69019308BD3C0203009C
:1041B80008B5024B1B689B6A019308BD3C020300CB
:1041C80008B5024B1B685B69019308BD64020300D4
:1041D80008B5024B1B689B68019308BD48020300A1
:1041E80008B5024B1B681B69019308BD4802030010
:1041F80008B5024B1B685B69019308BD48020300C0
:1042080008B5024B1B681B6B019308BD48020300ED
:1042180008B5024B1B685B6C019308BD480203009C
:1042280008B5024B1B685B68019308BD18020300C0
:1042380008B5024B1B685B69019308BD18020300AF
:1042480008B5024B1B68DB69019308BD3002030007
:1042580008B5024B1B681B68019308BD2C020300BC
:1042680008B5024B1B689B68019308BD68020300F0
:1042780008B5024B1B68DB68019308BD68020300A0
:1042880008B5024B1B68DB6B019308BD44020300B1
:1042980008B5024B1B685B68019308BD4002030028
:1042A80008B5024B1B689B68019308BD40020300D8
:1042B80008B5024B1B68DB68019308BD4002030088
:1042C80008B5024B1B681B69019308BD4002030037
:1042D80008B5024B1B685B69019308BD40020300E7
:1042E80008B5024B1B689B69019308BD4002030097
:1042F80008B5024B1B68DB69019308BD4002030047
:1043080008B5024B1B681B6A019308BD40020300F5
:1043180008B5024B1B681B6B019308BD40020300E4
:1043280008B5024B1B685B6B019308BD4002030094
:1043380008B5024B1B685B68019308BD20020300A7
:1043480008B5024B1B685B69019308BD2002030096
:1043580008B5034B1B68D3F88830019308BD0000EB
:104368002002030008B5034B1B68D3F8943001936F
:1043780008BD00002002030008B5024B1B681B683B
:10438800019308BD1C02030008B5024B1B685B685B
:10439800019308BD1C02030000231A464068FFF77A
:1043A80077BF002202214068FFF782BF0022114632
:1043B8004068FFF775BF002211464068FFF780BFCD
:1043C80000231A4619464068FFF782BF00231A46A1
:1043D80019464068FFF784BF002281F00101406858
:1043E800FFF786BF00224068FFF792BF0022114600
:1043F8004068FFF795BF002211464068FFF780BF6D
:1044080070B58CB01446064600F064FA0CAB002276
:10441800114643F8302D2046FFF72AFF014658BBC6
:10442800009B4BB35A68022A0ED00A2A24D15C6931
:10443800112201A800F065FD06238DF8143001ADA6
:1044480004F10803183405E059693046043100F0D6
:104458006EFA11E0186859682A4603C20833A34265
:104468001546F7D101A906A807AD00F041FA0FCD0E
:10447800341D0FC42B6823700098FFF7F1FE3046F7
:104488000CB070BD024B034A1A6000225A60704794
:10449800E8E40320B44F0D00002211464068FFF7FE
:1044A8000FBF002211464068FFF72ABF00221146BD
:1044B8004068FFF735BF00224068FFF729BF002298
:1044C80081F001014068FFF713BF00231A4619461F
:1044D8004068FFF705BF00231A4619464068FFF7F2
:1044E800F7BE002211464068FFF7DABE002202211B
:1044F8004068FFF7DDBE00231A464068FFF7C8BED4
:10450800024B04225A60024A1A607047F0E4032002
:10451800E84F0D00002211464068FFF7F1BE002267
:1045280011464068FFF7FCBE00224068FFF7F0BE66
:10453800002281F001014068FFF7DABE00231A4625
:1045480019464068FFF7CCBE00231A461946406852
:10455800FFF7BEBE002211464068FFF7B1BE002239
:1045680011464068FFF79CBE002202214068FFF711
:104578009FBE00231A464068FFF78ABE10B1036841
:104588005B681847704738B504460068D0B1FFF734
:104598001FFEB8B9237C1BB9206808B1FFF720FEBD
:1045A800656855B1AB681BB1032229462846984770
:1045B8002846FFF76EFD002363602068FFF718FEAA
:1045C8000023236038BD000038B50B4B0360044658
:1045D800D0F8CC0108B1FFF75EFDD4F8C4512DB175
:1045E8002846FFF7D0FF2846FFF753FDA06808B11B
:1045F800FFF7C4FF204638BD1C500D0038B50D4CE0
:104608000D4B23600025022304F5E4706360A56068
:10461800C4F8C451C4F8C851FFF7FAFD074BC4F8F1
:10462800CC5123602046064A0649BDE8384000F0D0
:1046380001BB00BFF8E40320B44F0D001C500D006F
:10464800E4E40320D1450D00704710B50446FFF798
:1046580020FD204610BD000070B5084B03600446DD
:1046680000250E4640F80C5FFFF7CAFD304626715C
:10467800FFF7E6FDA560204670BD00BF50500D0055
:10468800704741747047007CFFF792BD007CFFF7CC
:104698006FBD007CFFF77CBD007CFFF771BD007C1F
:1046A800FFF77EBD10B50446FFF7F3FC204610BDAA
:1046B80070B5457C04460E4625B9007CFFF778FDA9
:1046C800002805DD3146207CBDE87040FFF748BD75
:1046D800284670BD10B5044608461146002262609F
:1046E8004FF47A72A260054A226001222074627433
:1046F8001A46FFF72DFD204610BD00BF60500D0083
:10470800F8B5194C25684DB98420FFF7C0FC06465A
:1047180018B18422294600F0F4FB2660134D2E6858
:104728004EB98420FFF7B3FC074618B184223146FE
:1047380000F0E7FB2F600E4F396811F0010611D128
:104748003846FFF7AAFC68B122682B680948314649
:10475800FFF7C0FF3846FFF7A5FC074A0749054899
:1047680000F068FA0348F8BDE4E60320DCE603201D
:10477800E0E60320C8E60320E4E4032089460D00B0
:104788004174704770470021007CFFF7C9BC0121C4
:10479800007CFFF7C5BC007CFFF7BABC007CFFF7C4
:1047A800AFBC38B50446007C0D46FFF7B1FC0028C5
:1047B80001DC607C20B12946207CFFF7B9FC012090
:1047C80038BD007CFFF7BCBC10B50446FFF761FCA0
:1047D800204610BD10B50446002363604FF47A7379
:1047E800A360054B236001230846217463741146B6
:1047F800FFF776FC204610BD90500D000022007C8B
:10480800FFF776BC10B514220446002100F079FBAE
:10481800204610BD30B50E4D87B001A8FFF7F2FF56
:10482800296811F0010410D12846FFF736FC60B161
:1048380001AA21460748FFF7CDFF2846FFF732FCBB
:10484800054A0649034800F0F5F9024807B030BDAB
:10485800E8E60320ECE60320E4E403208D470D009E
:10486800704710B50446FFF714FC204610BDF0B59C
:10487800037D062B8DB00E4600F104074FF00004AF
:1048880002D000F1080518E00CAD394605F8304DA6
:104898002F232A460A20FFF793FC284600F062FBE4
:1048A80033680246DB682946304698470FE024B152
:1048B8002E21304600F009F9044415F8011D0A229A
:1048C800304600F048F9BD420444F0D120460DB00E
:1048D800F0BD000010B5054B0446112240F8043B1A
:1048E800002100F00EFB204610BD00BFC0500D0097
:1048F8000346074A10B543F8042B01F1100251F89A
:10490800044B43F8044B9142F9D10A781A7010BD50
:10491800C0500D0010B59DF8084044EA032343EA4F
:10492800024242EA016104234160037510BD37B5B4
:104938000D788B784A78C97800912946FFF7EAFF05
:1049480003B030BD10B58368044613B10322014695
:104958009847204610BD000008B50C4B33B1FFF74F
:1049680059FF03681B699847002809DC084B63B1A5
:10497800FFF7C6FE03681B699847002803DC08BDDB
:10498800AFF30080F2E7AFF3008008BD000000003D
:104998000000000008B5FFF7DFFFFFF749FC014BF7
:1049A800186008BD2CE7032007B5002300931A46BA
:1049B8006FF07701FFF7D6FC03B05DF804FB000049
:1049C80007B543880A2B08D0502B09D1094B1B681F
:1049D8003BB103B05DF804EB1847FFF7E5FF06E0CD
:1049E800002300931A466FF07701FFF7BBFC03B072
:1049F8005DF804FB00E7032010B5FFF711FC04463F
:104A080000F088FA074B13B12046AFF3008000216D
:104A18000448FFF735FC00210348BDE81040FFF7C4
:104A280097BC00BF00000000C9490D0010B504463E
:104A3800FFF788FF204610BD0348044A04490023B5
:104A4800836000F0F7B800BF04E70320E4E4032024
:104A5800354A0D00024B1A68024B1A60704700BFB6
:104A68007CE4032014E70320014B024A1A607047D4
:104A780018E70320AD510D000021FFF761BCF8B520
:104A880006460D468F180024BD420CD0336815F831
:104A9800011B9B6830469847002801DB0444F3E774
:104AA800002C08BF04462046F8BD70B505460C46E4
:104AB800084649B100F056FA2B68024621462846B6
:104AC800DB68BDE87040184770BD03689B681847ED
:104AD80038B50D210546FFF7F8FF0A210446284698
:104AE800FFF7F3FF204438BD38B50546FFF7DDFF73
:104AF80004462846FFF7ECFF204438BD30B58BB09C
:104B08000B4600218DF82410012A98BF0A220DF1C6
:104B18002304B3FBF2F505FB123303F0FF03092B63
:104B280094BF30333733DBB2214604F801392B46C2
:104B3800002DEED1FFF7B9FF0BB030BD10B42AB984
:104B480003685DF8044B9B68C9B21847D2B25DF898
:104B5800044BFFF7D3BFFFF7F1BF0000044B002061
:104B68004FF6FF72187058809A80FFF7E1BB00BFBC
:104B78001CE70320002211464068FFF7C1BB002252
:104B880011464068FFF7CCBB00224068FFF7C0BB66
:104B9800002281F001014068FFF7AABB00231A46F2
:104BA80019464068FFF79CBB00231A46194640681F
:104BB800FFF78EBB002211464068FFF781BB002239
:104BC80011464068FFF76CBB002202214068FFF7DE
:104BD8006FBB00231A464068FFF75ABB024B0322FB
:104BE8005A60024A1A60704724E70320E0510D001A
:104BF80070B50C4C0C4E0D4D00212046FFF72CFDD6
:104C080020460B4C3246294600F014F80121204674
:104C1800FFF722FD324629462046BDE8704000F0E5
:104C280009B800BF30E70320E4E4032051460D0033
:104C380040E703200B460146184600F049B900003A
:104C4800184B1A68D1075CBF01221A60164B1A6804
:104C5800D2075CBF01221A60144B1A68D0075CBFE8
:104C680001221A60124B1A68D1075CBF01221A6030
:104C7800104B1A68D2075CBF01221A600E4B1A68E3
:104C8800D0075CBF01221A600C4B1A68D1075CBFC1
:104C980001221A600A4B1A68D2075CBF01221A6007
:104CA800704700BF6CE7032068E7032064E7032030
:104CB80060E703205CE7032058E7032054E703205C
:104CC80050E70320244B1A68D0075CBF01221A6002
:104CD800224B1A68D1075CBF01221A60204B1A6860
:104CE800D2075CBF01221A601E4B1A68D0075CBF4E
:104CF80001221A601C4B1A68D1075CBF01221A6096
:104D08001A4B1A68D2075CBF01221A60184B1A683E
:104D1800D0075CBF01221A60164B1A68D1075CBF26
:104D280001221A60144B1A68D2075CBF01221A606C
:104D3800124B1A68D0075CBF01221A60104B1A6820
:104D4800D1075CBF01221A600E4B1A68D2075CBFFC
:104D580001221A60704700BF9CE7032098E70320F0
:104D680094E7032090E703208CE7032088E70320DB
:104D780084E7032080E703207CE7032078E703200B
:104D880074E7032070E70320244B1A68D0075CBF40
:104D980001221A60224B1A68D1075CBF01221A60EF
:104DA800204B1A68D2075CBF01221A601E4B1A6892
:104DB800D0075CBF01221A601C4B1A68D1075CBF80
:104DC80001221A601A4B1A68D2075CBF01221A60C6
:104DD800184B1A68D0075CBF01221A60164B1A6874
:104DE800D1075CBF01221A60144B1A68D2075CBF56
:104DF80001221A60124B1A68D0075CBF01221A60A0
:104E0800104B1A68D1075CBF01221A600E4B1A6852
:104E1800D2075CBF01221A60704700BFCCE70320AD
:104E2800C8E70320C4E70320C0E70320BCE703204A
:104E3800B8E70320B4E70320B0E70320ACE703207A
:104E4800A8E70320A4E70320A0E70320184B1A686B
:104E5800D1075CBF01221A60164B1A68D2075CBFE3
:104E680001221A60144B1A68D0075CBF01221A602D
:104E7800124B1A68D1075CBF01221A60104B1A68DE
:104E8800D2075CBF01221A600E4B1A68D0075CBFBC
:104E980001221A600C4B1A68D1075CBF01221A6004
:104EA8000A4B1A68D2075CBF01221A60704700BF1C
:104EB800ECE70320E8E70320E4E70320E0E703202A
:104EC800DCE70320D8E70320D4E70320D0E703205A
:104ED80010B5054C13462CB10A4601460220AFF323
:104EE800008010BD204610BD0000000010B5431E14
:104EF8000A44914204D011F8014B03F8014FF8E736
:104F080010BD02440346934202D003F8011BFAE79E
:104F18007047000038B5124B1C68A36B0546D3B91F
:104F28001820FFF729FA43F20E33A06303804AF6EC
:104F3800CD33438041F2342383804EF26D63C380C6
:104F48004DF6EC630381052343810B238381012202
:104F58000023C0E90423A36B00221D615A6138BDF8
:104F6800E0E40320034613F8012B002AFBD1181AAA
:104F7800013870471D400D0059400D0085400D0057
:104F880089400D00000000006661636B6F72662047
:104F9800383D3D3D442D2D2E2E2E2E5F5F616263E0
:104FA800000000000000000000000000A1430D0008
:104FB800AB430D00B5430D00BF430D00C9430D00C1
:104FC800D5430D00E1430D00ED430D00F5430D0001
:104FD800FF430D0009440D00000000000000000020
:104FE800FF440D00F5440D00EB440D00A1440D00F5
:104FF800DF440D00D3440D00C7440D00BF440D002D
:10500800B5440D00AB440D0009440D00000000003C
:10501800000000007B450D0071450D0067450D003F
:105028005D450D0051450D0045450D0039450D0004
:1050380031450D0027450D001D450D0009440D00A3
:10504800000000000000000051460D0053460D000E
:10505800000000000000000089460D00AD460D006C
:10506800B9460D00874A0D0095460D00A1460D0072
:105078009B460D00A7460D008B460D008F460D0080
:1050880000000000000000008D470D00D1470D0012
:10509800AB470D00874A0D00A5470D008F470D004F
:1050A80097470D00CB470D009F470D0089470D001E
:1050B800000000000000000077480D0069480D005E
:1050C8006B480D005A00252B3033643A2530327571
:1050D8000025592D256D2D25645425483A254D3A2E
:1050E8002553257A0061736374696D650066006CE9
:1050F8006E00666E00636F64650064657461696C58
:10510800000D0A00253031307520005D200025642F
:10511800002C200028293A2000205B00636F64657A
:10512800203D200025690064657461696C73203D29
:105138002000626175640053657269616C00536593
:105148007269616C31007479706500706172616DAB
:1051580000636D6400696400686E64007374726D46
:105168000066696C74006C766C0061646448616EFA
:10517800646C65720072656D6F766548616E646C0B
:10518800657200656E756D48616E646C657273005A
:105198004A534F4E53747265616D4C6F6748616E28
:1051A800646C657200617070006E6F6E6500747279
:1051B80061636500696E666F007761726E00657283
:1051C800726F720070616E696300616C6C00000040
:1051D8000000000000000000DB4B0D00D14B0D006B
:1051E800C74B0D00BD4B0D00B14B0D00A54B0D007D
:1051F800994B0D00914B0D00874B0D007D4B0D0019
:1052080009440D000000000000000000000000003C
:105218000000000000000000000000000000000086
:105228000000000000000000000000000000000076
:105238000000000000000000000000000000000066
:105248000000000000000000000000000000000056
:105258000000000000000000000000000000000046
:105268000000000043000000E1400D00E5400D0093
:105278008D440D0009450D0005460D00414A0D00FD
:105288005D4A0D00714A0D00654B0D00E54B0D00A0
:10529800F94B0D00494C0D00CD4C0D00914D0D0002
:0852A800554E0D00000000004E
:1052B000ED500D00000000000C520D002C520D00AE
:1052C0004C520D0000000000000000000000000033
:1052D000000000006C520D00000000000000000003
:1052E00000000000000000000000000000000000BE
:1052F00000000000000000000000000000000000AE
:10530000000000000000000000000000000000009D
:085310000000000080E403200E
:10531800FFFFFFFF00000102030405060708090A52
:105328000B0C0D0E0F101112131415161718191A4D
:085338001B1C1D1E1F20280094
:045340007856341255
:04000003D0004018D1
:00000001FF
