:02000002D0002C
:1040000000400D00686F0D00000005000C00050168
:0840100004019301000000000F
:10401800086B0D0009480A49884208B505D0094AC5
:10402800824202D0121A02F00BFD0748074A00210B
:10403800121A02F010FD014808BD00BF60E303201A
:10404800D86E0D00C8E30320C8E30320F0E703207F
:1040580070B501F067F9074C074BE41AA40800256E
:104068001E46A54204D056F8253098470135F8E792
:1040780070BD00BFC46E0D00886E0D0000F072B8F0
:1040880008B500F097F8BDE8084001F019B900F04C
:10409800FBBA00F001BB00F0FFBA0078B0FA80F07C
:1040A8004009704701230370704710B5002104468A
:1040B8000E2001F08FFC204610BD0000000000001B
:1040C80038B5044614250E2001F095FC07EE900A39
:1040D80094ED007AF8EEE77A013D77EE877AC4ED41
:1040E800007AF0D1F3EE046A87EEA67ADFED0C7A57
:1040F800C7EE276A16EE900A01F048FF06A3D3E937
:10410800002301F097FF02F08DFA206000EE100AFC
:1041180038BD00BFAFF300806666666666660A4013
:1041280000F07F450000000010B50446FFF7C8FF07
:10413800F2EE047A60EE277A17EE900A01F026FF75
:1041480005A3D3E9002302F09FF802F06BFA606040
:1041580000EE100A10BD00BF6666666666660A4015
:1041680000F0C6B908B500F053FD4FF4E131BDE8E1
:10417800084000F041BD70B5064600200C4600F02E
:104188005FFA08B9002070BD002C03DD00F098F933
:10419800054600E0002573783BB9002C07DD00F0E8
:1041A8008FF9401BA04202D3ECE7012070BD00F05C
:1041B800CFF9F0E730B52DED028B8BB002A8FFF7F1
:1041C80074FF02A8FFF77CFFB0EE408A00F020FDE4
:1041D800394901F010F900F01BFDDFED387A68EE7F
:1041E800277A044617EE900A01F0D0FE41EC100B36
:1041F8000321204601F02AFA00F00AFD304901F0B7
:104208000DF902A8FFF790FF032106A801F0DEFAD6
:1042180000F0FEFC069901F001F92A4B2A491A78A8
:104228002A4B1B7813438DF80030069A3C2304A8C8
:1042380000F0C4FE049C00212046FFF79CFF637831
:10424800BFF35F8F33B100212046FFF794FF237837
:10425800012B2FD00025059C7CB16368013B63606E
:104268005BB9236820469B689847A368013BA36015
:104278001BB923682046DB6898472DB900F0C8FCB5
:10428800134901F0CBF80AE000F0C2FC114901F033
:10429800B2F800F0BDFC0A22012101F01AF942F23D
:1042A800107001F07FF806A801F038FA0BB0BDECE9
:1042B800028B30BD257BCEE71C6B0D0000007A44D5
:1042C8002B6B0D00CCE303202E6B0D00CDE30320F8
:1042D800416B0D004A6B0D00034B00221A70034B13
:1042E80008221A7000F004B9CCE30320CDE30320C0
:1042F80008B5024B1B681B68019308BD4C020300FC
:1043080008B5024B1B685B68019308BD4C020300AB
:1043180008B5024B1B681B69019308BD4C020300DA
:1043280008B5024B1B685B69019308BD4C0203008A
:1043380008B5024B1B689B69019308BD4C0203003A
:1043480008B5024B1B68DB69019308BD4C020300EA
:1043580008B5024B1B681B6A019308BD4C02030099
:1043680008B5024B1B681B6A019308BD28020300AD
:1043780008B5024B1B685B6A019308BD280203005D
:1043880008B5024B1B689B6A019308BD280203000D
:1043980008B5024B1B68DB6A019308BD28020300BD
:1043A80008B5024B1B681B6B019308BD280203006C
:1043B80008B5024B1B685B6B019308BD280203001C
:1043C80008B5024B1B681B6C019308BD280203004B
:1043D80008B5024B1B681B68019308BD3C0203002B
:1043E80008B5024B1B68DB68019308BD3C0203005B
:1043F80008B5024B1B681B69019308BD3C0203000A
:1044080008B5024B1B685B69019308BD3C020300B9
:1044180008B5024B1B689B69019308BD3C02030069
:1044280008B5024B1B68DB69019308BD3C02030019
:1044380008B5024B1B681B6A019308BD3C020300C8
:1044480008B5024B1B689B6A019308BD3C02030038
:1044580008B5024B1B685B69019308BD6402030041
:1044680008B5024B1B689B68019308BD480203000E
:1044780008B5024B1B681B69019308BD480203007D
:1044880008B5024B1B685B69019308BD480203002D
:1044980008B5024B1B681B6B019308BD480203005B
:1044A80008B5024B1B685B6C019308BD480203000A
:1044B80008B5024B1B685B68019308BD180203002E
:1044C80008B5024B1B685B69019308BD180203001D
:1044D80008B5024B1B68DB69019308BD3002030075
:1044E80008B5024B1B681B6A019308BD3002030024
:1044F80008B5024B1B681B68019308BD2C0203001A
:1045080008B5024B1B685B68019308BD2C020300C9
:1045180008B5024B1B689B68019308BD2C02030079
:1045280008B5024B1B681B6B019308BD2C020300E6
:1045380008B5024B1B689B68019308BD680203001D
:1045480008B5024B1B68DB68019308BD68020300CD
:1045580008B5024B1B689B68019308BD4402030021
:1045680008B5024B1B681B6A019308BD440203008F
:1045780008B5024B1B68DB6B019308BD44020300BE
:1045880008B5024B1B685B68019308BD4002030035
:1045980008B5024B1B689B68019308BD40020300E5
:1045A80008B5024B1B68DB68019308BD4002030095
:1045B80008B5024B1B681B69019308BD4002030044
:1045C80008B5024B1B685B69019308BD40020300F4
:1045D80008B5024B1B689B69019308BD40020300A4
:1045E80008B5024B1B68DB69019308BD4002030054
:1045F80008B5024B1B681B6A019308BD4002030003
:1046080008B5024B1B681B6B019308BD40020300F1
:1046180008B5024B1B685B6B019308BD40020300A1
:1046280008B5024B1B685B68019308BD20020300B4
:1046380008B5024B1B685B69019308BD20020300A3
:1046480008B5024B1B68DB6C019308BD2002030010
:1046580008B5024B1B685B6D019308BD200203007F
:1046680008B5034B1B68D3F88830019308BD0000D8
:104678002002030008B5034B1B68D3F8943001935C
:1046880008BD00002002030008B5024B1B681B6828
:10469800019308BD1C02030008B5024B1B685B6848
:1046A800019308BD1C02030008B5024B1B689B68F8
:1046B800019308BD1C02030008B5024B1B68DB6AA6
:1046C800019308BD1C02030008B5024B1B681B6B55
:1046D800019308BD1C02030010B5036804469B68DB
:1046E8009847A368013BA3602BB923682046DB6881
:1046F800BDE81040184710BD10B50446006828B141
:104708004368013B43600BB9FFF7E6FF204610BD45
:1047180000231A464068FFF733BF00220221406891
:10472800FFF73EBF002211464068FFF731BF002265
:1047380011464068FFF73CBF00231A4619464068F7
:10474800FFF73EBF00231A4619464068FFF740BFEF
:10475800002281F001014068FFF742BF0022406853
:10476800FFF74EBF002211464068FFF751BF0022F5
:1047780011464068FFF73CBF70B58CB0144606463A
:1047880000F0A6FA0CAB0022114643F8302D204663
:10479800FFF7D6FE014658BB009B4BB35A68022A66
:1047A8000ED00A2A24D15C69112201A802F053F91B
:1047B80006238DF8143001AD04F10803183405E020
:1047C80059693046043100F0B0FA11E018685968A8
:1047D8002A4603C20833A3421546F7D101A906A801
:1047E80007AD00F083FA0FCD341D0FC42B6823707A
:1047F8000098FFF79DFE30460CB070BD024B034A8F
:104808001A6000225A607047D0E303207C6B0D00C9
:10481800002211464068FFF7CBBE002211464068CF
:10482800FFF7E6BE002211464068FFF7F1BE0022FE
:104838004068FFF7E5BE002281F001014068FFF7FC
:10484800CFBE00231A4619464068FFF7C1BE0023B1
:104858001A4619464068FFF7B3BE00221146406861
:10486800FFF796BE002202214068FFF799BE002399
:104878001A464068FFF784BE024B04225A60024A77
:104888001A607047D8E30320B06B0D000022114670
:104898004068FFF7ADBE002211464068FFF7B8BE7A
:1048A80000224068FFF7ACBE002281F00101406899
:1048B800FFF796BE00231A4619464068FFF788BEE0
:1048C80000231A4619464068FFF77ABE00221146AF
:1048D8004068FFF76DBE002211464068FFF758BEDA
:1048E800002202214068FFF75BBE00231A46406899
:1048F800FFF746BE10B103685B681847704738B5C4
:1049080004460068D0B1FFF7ABFDB8B9237C1BB9EA
:10491800206808B1FFF7ACFD656855B1AB681BB1FD
:1049280003222946284698472846FFF7B2FB00236A
:1049380063602068FFF7A4FD0023236038BD0000F2
:1049480038B50B4B03600446D0F8CC0108B1FFF72B
:10495800A2FBD4F8C4512DB12846FFF7D0FF284652
:10496800FFF797FBA06808B1FFF7C4FF204638BDE2
:10497800E46B0D0038B50D4C0D4B23600025022368
:1049880004F5E4706360A560C4F8C451C4F8C85164
:10499800FFF786FD074BC4F8CC5123602046064A32
:1049A8000649BDE8384001F03DB800BFE0E3032008
:1049B8007C6B0D00E46B0D00C8E3032049490D0032
:1049C800704710B50446FFF764FB204610BD000091
:1049D80070B5084B0360044600250E4640F80C5F8E
:1049E800FFF756FD30462671FFF772FDA560204699
:1049F80070BD00BF186C0D000079FFF771BD7047DE
:104A0800F8B5064615460C468F18BC4206D03368E2
:104A180014F8011B9B6830469847F6E72846F8BD0E
:104A28000022007CFFF79CBC0021007CFFF7A0BCA3
:104A38000021007CFFF7A4BC0021007CFFF7A8BC84
:104A48000021007CFFF7ACBC10B50446FFF721FB42
:104A5800204610BD10B504464FF47A730846A3608B
:104A68000021044B207461602360FFF7A9FC2046F5
:104A780010BD00BF286C0D000021007CFFF798BC1A
:104A880010B5836804460BB900F0D1FFC368984796
:104A9800A3681BB103222146204698472046BDE85B
:104AA8001040FFF7F6BA704741747047007CFFF773
:104AB800C7BC007CFFF79CBC007CFFF7A9BC007C4E
:104AC800FFF79EBC007CFFF7ABBC10B50446FFF7B0
:104AD800E0FA204610BD70B5457C04460E4625B95F
:104AE800007CFFF7ADFC002805DD3146207CBDE8E1
:104AF8007040FFF775BC284670BD000010B504462D
:104B080008461146002262604FF47A72A260054A94
:104B180022600122207462741A46FFF759FC20466D
:104B280010BD00BF506C0D00007CFFF781BC000079
:104B380038B50C4D296811F0010411D12846FFF74A
:104B4800ACFA68B1084A094B09482146FFF7D6FF75
:104B58002846FFF7A7FA074A0749054800F062FF09
:104B6800034838BD48E603204CE60320C4E503208B
:104B7800B0E50320C8E30320AF4A0D004174704735
:104B880070470021007CFFF7D3BB0121007CFFF7B1
:104B9800CFBB007CFFF7C4BB007CFFF7B9BB38B5BF
:104BA8000446007C0D46FFF7BBFB002801DC607C57
:104BB80020B12946207CFFF7C3FB012038BD007CCB
:104BC800FFF7C6BB10B50446FFF763FA204610BDD1
:104BD80010B50446002363604FF47A73A360054B55
:104BE800236001230846217463741146FFF780FB94
:104BF800204610BD806C0D000022007CFFF780BBB2
:104C080010B514220446002101F025FF204610BDEE
:104C180030B50E4D87B001A8FFF7F2FF296811F0F3
:104C2800010410D12846FFF738FA60B101AA2146DD
:104C38000748FFF7CDFF2846FFF734FA054A06492B
:104C4800034800F0EFFE024807B030BDD0E603206D
:104C5800D4E60320C8E30320894B0D00704710B544
:104C68000446FFF716FA204610BDF0B5037D062B63
:104C78008DB00E4600F104074FF0000402D000F199
:104C8800080518E00CAD394605F8304D2F232A46A3
:104C98000A20FFF7DDFB284601F029FF33680246AA
:104CA800DB682946304698470FE024B12E2130466C
:104CB80000F0A5FB044415F8011D0A22304600F057
:104CC800E4FBBD420444F0D120460DB0F0BD000025
:104CD80010B5054B0446112240F8043B002101F0B1
:104CE800BAFE204610BD00BFB06C0D000346074A4F
:104CF80010B543F8042B01F1100251F8044B43F8A6
:104D0800044B9142F9D10A781A7010BDB06C0D00AD
:104D180010B59DF8084044EA032343EA024242EAF8
:104D2800016104234160037510BD37B50D788B7898
:104D38004A78C97800912946FFF7EAFF03B030BDE9
:104D480070470020704710B50446FFF7A2F92046C7
:104D580010BD08B508B1FFF7F6FF08BD10B58368A8
:104D6800044613B1032201469847204610BD38B5C2
:104D7800C468D4B12378022B02D1E068FFF78CFC19
:104D880065682DB12846FFF7E9FF2846FFF781F946
:104D9800A5682DB12846FFF7E1FF2846FFF779F906
:104DA8002046BDE83840FFF774B938BD13B504464E
:104DB80091E8050000234B600B602060626001A849
:104DC80001930093FFF798FC204602B010BD0B68D2
:104DD800036013B15A6801325A607047F7B50C4640
:104DE80002AD54F8043B45F8083D06460F4601A8B5
:104DF8002146FFF7ECFF29463046FFF7D7FF01A809
:104E0800FFF77AFC2046FFF777FC3846FFF741F9B1
:104E1800304603B0F0BD13B50B46044603C88DE811
:104E2800030093E8030084E803009DE8030083E897
:104E3800030002B010BD826810B50AB900F0F7FD92
:104E4800C368BDE81040184708B5006800F11001B4
:104E5800FFF7F1FF08BD826810B50AB900F0E7FD59
:104E6800C368BDE81040184708B5006800F1100194
:104E7800FFF7F1FF08BD38B5002383608B6804464F
:104E88000D462BB102229847EB68E360AB68A3603C
:104E9800204638BD2DE9F0414FF69C7386B0046872
:104EA800B1F904208B8000230F688DF800300B6067
:104EB8004FF00200D4E84F1F994203D1C4E8450FD0
:104EC800002DF7D102D08DF800106AE014F10C051E
:104ED8001EBFE76022821F460123BFF35F8F0020B9
:104EE800637004F10803BFF35F8F53E8006F43E872
:104EF8000002002AF9D1BFF35F8F002E51D0FFF7CF
:104F08009FFB20B129463046FFF795FF43E0314625
:104F18006846FFF7B0FFE068B4F9105008B101F037
:104F2800CBFD04901020ADF81450FFF7B0F80546FB
:104F380030B34FF00008C0F808801820FFF7A7F832
:104F48000446C0B1C0F8088001466846FFF763FF11
:104F5800029BA268A360039B0292E268E360BDF82B
:104F68001430A3824FF69C73ADF81430049B03925F
:104F78002361CDF810800E4BEB600E4B2C60AB60BC
:104F88000498FFF789FB6846FFF7E8FE00222946E8
:104F98000948FFF75DFB3046FFF7E0FE3046FFF7B4
:104FA80078F83846FFF778FB06B0BDE8F08100BF17
:104FB800514E0D00AD500D00894A0D002DE9F04FFE
:104FC8008BB007AD4FF0000B0646994614200C2312
:104FD8000F4690469DF850A0C5F804B0C5F808B033
:104FE8000793FFF754F8044638B180F800B080F80A
:104FF80001B0C0F804B0C0F808B000231020039432
:105008000493FFF744F828B1012343608360234BDE
:105018000360C4600490224B08930820FFF737F818
:10502800044628B1039B40F8043B04A9FFF7CFFED0
:1050380000955FFA8AF34A46414638460994FFF7D5
:105048008FFAB8B9039B5B7803F0FF0293B94FF668
:105058009C7305A903A80592ADF81830FFF71AFF4D
:105068000598FFF719FB05A80999FFF7B7FE06A8E9
:10507800FFF742FB039B059304A906A8FFF7A7FEC9
:1050880005A93046FFF792FE06A8FFF735FB04A8EE
:10509800FFF732FB30460BB0BDE8F08FC46C0D0053
:1050A80015520D00022AF8B5044606D0032A17D077
:1050B800012A20D10B6803601DE018200E68FEF756
:1050C800E6FF054650B13146FFF7D5FE3069B6F91F
:1050D800147008B101F0F0FC2861AF8225600AE085
:1050E800046844B12069FFF7D7FA2046FFF736FE77
:1050F8002046FEF7CEFF0020F8BD38B500238360B8
:105108008B6804460D462BB102229847EB68E36092
:10511800AB68A360204638BD022A70B5044606D0A5
:10512800032A11D0012A17D10B68036014E0142058
:105138000E68FEF7ACFF054620B13146FFF7DDFFEC
:10514800337C2B74256007E004682CB12046FFF7F8
:1051580005FE2046FEF79DFF002070BDF0B5002338
:1051680087B00C46BFF35F8F50E8006F40E800320D
:10517800002AF9D1BFF35F8F002E3ED01846FFF703
:105188005FFA074620B121463046FFF764FE2EE05D
:10519800314601A8FFF7B1FF23788DF814301020AD
:1051A800FEF775FF0546D0B187601420FEF76FFF44
:1051B800044678B18760014601A8FFF72CFE039BDF
:1051C800A268A360049B0392E268E3609DF8143030
:1051D800049223740A4BEB600A4B2C60AB6001A865
:1051E800FFF7BCFD002229460748FFF731FA304691
:1051F800FFF7B4FD3046FEF74CFF07B0F0BD00BF27
:10520800714E0D0021510D00894A0D0030B585B051
:1052180004460D4668461146FFF7E0FD7CB124B20E
:1052280028460DB101F048FC029002A96846ADF885
:105238000C40FFF72FFE0298FFF72EFA1DE00098AA
:105248008DF808404FF00102D0E84F3FA34203D148
:10525800C0E8412F0029F7D102D08DF808300CE0C2
:1052680010F10C014FF0010318BF0373BFF35F8FF8
:10527800043000F8033CFFF771FF01A8FFF73CFA80
:1052880005B030BD08B50C4B33B1FFF7C1FC03685E
:105298001B699847002809DC084B63B1FFF748FCF5
:1052A80003681B699847002803DC08BDAFF300803A
:1052B800F2E7AFF3008008BD000000000000000026
:1052C80008B5FFF7DFFFFFF7FBF8014B186008BDD3
:1052D8002CE7032007B5002300931A466FF07701E7
:1052E800FFF7C8F903B05DF804FB000007B5438871
:1052F8000A2B08D0502B09D1094B1B683BB103B0CE
:105308005DF804EB1847FFF7E5FF06E0002300937C
:105318001A466FF07701FFF7ADF903B05DF804FBAB
:10532800E8E6032010B5FFF7C3F8044601F09CFB3C
:10533800074B13B12046AFF3008000210448FFF764
:1053480017F900210348BDE81040FFF789B900BFED
:1053580000000000F5520D0010B50446FFF7FEFCF2
:10536800204610BD0348044A04490023836000F026
:1053780059BB00BFECE60320C8E3032061530D00CE
:10538800024B1A68024B1A60704700BF60E30320A3
:10539800FCE60320014B024A1A60704700E703202D
:1053A800B76D0D000021FFF743B9F8B506460D4665
:1053B8008F180024BD420CD0336815F8011B9B6878
:1053C80030469847002801DB0444F3E7002C08BF67
:1053D80004462046F8BD70B505460C46084649B156
:1053E80001F085FB2B68024621462846DB68BDE8AC
:1053F8007040184770BD08B5FFF7EDFF08BD03689A
:105408009B68184738B50D210546FFF7F8FF0A21B4
:1054180004462846FFF7F3FF204438BD38B5054653
:10542800FFF7D9FF04462846FFF7ECFF204438BDB4
:1054380030B58BB00B4600218DF82410012A98BF97
:105448000A220DF12304B3FBF2F505FB123303F036
:10545800FF03092B94BF30333733DBB2214604F8FE
:1054680001392B46002DEED1FFF7B5FF0BB030BD4B
:1054780010B42AB903685DF8044B9B68C9B2184791
:10548800D2B25DF8044BFFF7D3BFFFF7F1BF2DE9A8
:10549800F04107460E4615462AB90368C9B29B680B
:1054A800BDE8F04118470A2A02D1002901DA04E0D0
:1054B800D2B2BDE8F041FFF7BBBF2D21FFF79FFF38
:1054C8002A46044671423846FFF7B2FF2044BDE839
:1054D800F08138B50546FFF7DAFF04462846FFF79E
:1054E80091FF204438BD00002DE9F04757EC106BC0
:1054F80082460D4610EE102A3B4610EE100A394639
:1055080001F032F808B1484912E027F000494FF09D
:10551800FF32464B3046494601F026F868B94FF04D
:10552800FF32424B3046494601F000F828B940495D
:105538005046FFF750FFBDE8F0874FF060423D4B03
:105548003046394601F006F808B13B49F0E74FF01C
:1055580060423A4B3046394600F0DEFF0028F4D16D
:10556800002200233046394600F0D6FF40B12D21F5
:105578005046FFF744FF07F1004304461F4600E08A
:1055880004462F494FF0000800205FFA88F39D4237
:1055980006D900222B4B00F077FE08F10108F4E74A
:1055A80032463B4600F094FB0F46064601F01AF8D7
:1055B8000A22014680465046FFF73AFF04447DB36D
:1055C800404600F0C1FC02460B463046394600F022
:1055D8007DFB06460F4650461B49FFF7FCFE044478
:1055E800184B00223046394600F024FD0F46064687
:1055F80000F0D0FF0A22014680465046FFF747FFD9
:105608000444404600F0B0FC02460B46304639469A
:1056180000F05CFB013D15F0FF0506460F46DFD1A3
:105628002046BDE8F08700BFE06D0D00FFFFEF7F6B
:10563800EA6D0D00FFFFEF41E46D0D00FFFFEFC1C4
:105648000000E03F00002440E86D0D00C9B2FFF7FC
:105658004BBF00002DE9F14F59EC108B07460E4661
:105668000022002310EE100A494600F055FF28B129
:1056780009F1004399462D23337001360023012494
:105688000A22D9B28F4202D954430133F9E720469E
:1056980000F06AFC42464B4600F0CCFC82468B4642
:1056A80001F028F88046894600F08EFC02460B4639
:1056B8005046594600F00AFB0022174B00F040FF05
:1056C80018B118F1010849F10009E51722462B46DF
:1056D8004046494600F0F6FF01230A22314600F011
:1056E800A0F8AFB1304601F002FA2E23335401304E
:1056F800064422462B464046494600F0E3FF3B4617
:10570800104631460A2201B0BDE8F04F00F089B8D2
:1057180001B0BDE8F08F00BF0000E03F10B50446BF
:105728000068FEF7B9FF204610BD10B504460068B2
:1057380008B1FEF7B1FF00232360A360636010BDCA
:1057480038B504460D4600680131FEF7ADFF10B1CB
:1057580084E82100012038BD10B50368044613B160
:1057680043688B4207D22046FFF7EAFF20B1A368BF
:105778000BB922681370012010BD70B50E46114692
:1057880004461546FFF7E8FF18B92046FFF7CDFF96
:1057980009E02A463146A560206801F051F92268DF
:1057A800A3680021D154204670BD38B505460C4683
:1057B80041B1084601F09BF9214602462846FFF709
:1057C800DCFF01E0FFF7B1FF284638BD30B5002304
:1057D8008BB00360436083600373044610EE100AC5
:1057E800CDB200F0D3FB41EC100B01A92846FFF71E
:1057F80031FF01A92046FFF7D8FF20460BB030BD86
:1058080010B5044601F073F9013823182046984270
:1058180006D20278197800F8011B03F80129F6E787
:1058280010BD70B50C46911E222920D82546294660
:1058380010B9234430220EE0B0FBF2F602FB16004A
:10584800C1B205F8011B092894BF3031573105F85A
:10585800011C3046EBE7994202D201F8012BFAE726
:10586800002320460B70FFF7CBFF204670BD0020B9
:1058780070BD0000044B00204FF6FF72187058806E
:105888009A80FEF7CDBE00BF04E703200022114630
:105898004068FEF7ADBE002211464068FEF7B8BE6C
:1058A80000224068FEF7ACBE002281F0010140688A
:1058B800FEF796BE00231A4619464068FEF788BED2
:1058C80000231A4619464068FEF77ABE00221146A0
:1058D8004068FEF76DBE002211464068FEF758BECC
:1058E800002202214068FEF75BBE00231A4640688A
:1058F800FEF746BE024B03225A60024A1A607047FE
:105908000CE70320F86D0D0038B50B4D296811F030
:1059180001040FD12846FEF7C0FB58B121460748BD
:10592800FFF798F82846FEF7BDFB054A05490348E6
:1059380000F078F8014838BD14E7032018E7032081
:10594800C8E30320074A0D0070B50C4C0C4E0D4DF2
:1059580000212046FFF73CF820460B4C32462946EA
:1059680000F060F801212046FFF732F83246294658
:105978002046BDE8704000F055B800BF30E703206E
:10598800C8E30320C9490D0040E7032010B50446C9
:105998000F48FFF731F828B1A4F10B03022B01D807
:1059A800002010BDFFF7B0FFFFF766F808B1012C23
:1059B800F6D9FFF7BDF8FFF7B7F818B1A4F1090356
:1059C800012BEDD9232C8CBF0020012010BD00BF76
:1059D80030E70320232838B504460D460AD8FF29A6
:1059E80008D0FFF7D3FF28B129462046BDE8384044
:1059F800FEF78EBD38BD0D2810B504469CBF0E3489
:105A0800A4B22046FFF7C2FF50B103212046FEF79B
:105A180077FD032804D12046BDE81040FEF780BD7D
:105A2800002010BD0B460146184600F0FBBF08B524
:105A3800FEF742FE184B1A68D1075CBF01221A60B4
:105A4800164B1A68D2075CBF01221A60144B1A68F9
:105A5800D0075CBF01221A60124B1A68D1075CBFDD
:105A680001221A60104B1A68D2075CBF01221A6023
:105A78000E4B1A68D0075CBF01221A600C4B1A68DB
:105A8800D1075CBF01221A600A4B1A68D2075CBFB3
:105A980001221A60704700BF6CE7032068E7032003
:105AA80064E7032060E703205CE7032058E703204E
:105AB80054E7032050E70320244B1A68D0075CBF43
:105AC80001221A60224B1A68D1075CBF01221A60B2
:105AD800204B1A68D2075CBF01221A601E4B1A6855
:105AE800D0075CBF01221A601C4B1A68D1075CBF43
:105AF80001221A601A4B1A68D2075CBF01221A6089
:105B0800184B1A68D0075CBF01221A60164B1A6836
:105B1800D1075CBF01221A60144B1A68D2075CBF18
:105B280001221A60124B1A68D0075CBF01221A6062
:105B3800104B1A68D1075CBF01221A600E4B1A6815
:105B4800D2075CBF01221A60704700BF9CE70320A0
:105B580098E7032094E7032090E703208CE70320CD
:105B680088E7032084E7032080E703207CE70320FD
:105B780078E7032074E7032070E70320244B1A68B2
:105B8800D0075CBF01221A60224B1A68D1075CBF9C
:105B980001221A60204B1A68D2075CBF01221A60E2
:105BA8001E4B1A68D0075CBF01221A601C4B1A688A
:105BB800D1075CBF01221A601A4B1A68D2075CBF72
:105BC80001221A60184B1A68D0075CBF01221A60BC
:105BD800164B1A68D1075CBF01221A60144B1A6869
:105BE800D2075CBF01221A60124B1A68D0075CBF4B
:105BF80001221A60104B1A68D1075CBF01221A6093
:105C08000E4B1A68D2075CBF01221A60704700BFAA
:105C1800CCE70320C8E70320C4E70320C0E703203C
:105C2800BCE70320B8E70320B4E70320B0E703206C
:105C3800ACE70320A8E70320A4E70320A0E703209C
:105C4800184B1A68D1075CBF01221A60164B1A68F4
:105C5800D2075CBF01221A60144B1A68D0075CBFD8
:105C680001221A60124B1A68D1075CBF01221A6020
:105C7800104B1A68D2075CBF01221A600E4B1A68D3
:105C8800D0075CBF01221A600C4B1A68D1075CBFB1
:105C980001221A600A4B1A68D2075CBF01221A60F7
:105CA800704700BFECE70320E8E70320E4E70320A0
:105CB800E0E70320DCE70320D8E70320D4E703204C
:105CC800D0E7032081F0004102E000BF83F00043E9
:105CD80030B54FEA41044FEA430594EA050F08BF7F
:105CE80090EA020F1FBF54EA000C55EA020C7FEA43
:105CF800645C7FEA655C00F0E2804FEA5454D4EBC0
:105D08005555B8BF6D420CDD2C4480EA020281EA89
:105D1800030382EA000083EA010180EA020281EAC1
:105D28000303362D88BF30BD11F0004F4FEA013113
:105D38004FF4801C4CEA113102D0404261EB410122
:105D480013F0004F4FEA03334CEA133302D05242A8
:105D580063EB430394EA050F00F0A780A4F1010464
:105D6800D5F1200E0DDB02FA0EFC22FA05F280189E
:105D780041F1000103FA0EF2801843FA05F3594184
:105D88000EE0A5F120050EF1200E012A03FA0EFC03
:105D980028BF4CF0020C43FA05F3C01851EBE3712D
:105DA80001F0004507D54FF0000EDCF1000C7EEB4A
:105DB80000006EEB0101B1F5801F1BD3B1F5001F88
:105DC8000CD349085FEA30004FEA3C0C04F10104A7
:105DD8004FEA445212F5800F80F09A80BCF1004FD0
:105DE80008BF5FEA500C50F1000041EB045141EA52
:105DF800050130BD5FEA4C0C404141EB010111F453
:105E0800801FA4F10104E9D191F0000F04BF0146FD
:105E18000020B1FA81F308BF2033A3F10B03B3F1DB
:105E280020020CDA0C3208DD02F1140CC2F10C026B
:105E380001FA0CF021FA02F10CE002F11402D8BFC9
:105E4800C2F1200C01FA02F120FA0CFCDCBF41EA95
:105E58000C019040E41AA2BF01EB0451294330BD64
:105E68006FEA04041F3C1CDA0C340EDC04F1140441
:105E7800C4F1200220FA04F001FA02F340EA030018
:105E880021FA04F345EA030130BDC4F10C04C4F15E
:105E9800200220FA02F001FA04F340EA030029463E
:105EA80030BD21FA04F0294630BD94F0000F83F488
:105EB800801306BF81F480110134013D4EE77FEA6B
:105EC800645C18BF7FEA655C29D094EA050F08BFB7
:105ED80090EA020F05D054EA000C04BF1946104698
:105EE80030BD91EA030F1EBF0021002030BD5FEADC
:105EF800545C05D14000494128BF41F0004130BD04
:105F080014F580043CBF01F5801130BD01F0004557
:105F180045F0FE4141F470014FF0000030BD7FEACA
:105F2800645C1ABF194610467FEA655C1CBF0B46C5
:105F3800024650EA013406BF52EA033591EA030FDC
:105F480041F4002130BD00BF90F0000F04BF0021D4
:105F5800704730B54FF4806404F132044FF0000507
:105F68004FF0000150E700BF90F0000F04BF002180
:105F7800704730B54FF4806404F1320410F00045E6
:105F880048BF40424FF000013EE700BF42004FEAE1
:105F9800E2014FEA31014FEA02701FBF12F07F435E
:105FA80093F07F4F81F06051704792F0000F14BF5B
:105FB80093F07F4F704730B54FF4607401F000459F
:105FC80021F0004120E700BF50EA010208BF7047F6
:105FD80030B54FF000050AE050EA010208BF7047EB
:105FE80030B511F0004502D5404261EB41014FF454
:105FF800806404F132045FEA915C3FF4DCAE4FF058
:1060080003025FEADC0C18BF03325FEADC0C18BF3E
:10601800033202EBDC02C2F1200300FA03FC20FA8F
:1060280002F001FA03FE40EA0E0021FA02F11444DC
:10603800C1E600BF70B54FF0FF0C4CF4E06C1CEAF1
:1060480011541DBF1CEA135594EA0C0F95EA0C0F66
:1060580000F0DEF82C4481EA030621EA4C5123EAD9
:106068004C5350EA013518BF52EA033541F4801108
:1060780043F4801338D0A0FB02CE4FF00005E1FBBB
:1060880002E506F00042E0FB03E54FF00006E1FB05
:1060980003569CF0000F18BF4EF0010EA4F1FF0448
:1060A800B6F5007F64F5407404D25FEA4E0E6D4188
:1060B80046EB060642EAC62141EA55514FEAC52099
:1060C80040EA5E504FEACE2EB4F1FD0C88BFBCF515
:1060D800E06F1ED8BEF1004F08BF5FEA500E50F1C6
:1060E800000041EB045170BD06F0004646EA01018C
:1060F80040EA020081EA0301B4EB5C04C2BFD4EBBE
:106108000C0541EA045170BD41F480114FF0000EB6
:10611800013C00F3AB8014F1360FDEBF002001F024
:10612800004170BDC4F10004203C35DA0C341BDC9E
:1061380004F11404C4F1200500FA05F320FA04F070
:1061480001FA05F240EA020001F0004221F00041A4
:1061580010EBD37021FA04F642EB06015EEA430E17
:1061680008BF20EAD37070BDC4F10C04C4F1200547
:1061780000FA04F320FA05F001FA04F240EA0200FA
:1061880001F0004110EBD37041F100015EEA430ECB
:1061980008BF20EAD37070BDC4F1200500FA05F2EB
:1061A8004EEA020E20FA04F301FA05F243EA02036A
:1061B80021FA04F001F0004121FA04F220EA020079
:1061C80000EBD3705EEA430E08BF20EAD37070BDBF
:1061D80094F0000F0FD101F00046400041EB01019F
:1061E80011F4801F08BF013CF7D041EA060195F081
:1061F800000F18BF704703F00046520043EB03033B
:1062080013F4801F08BF013DF7D043EA0603704727
:1062180094EA0C0F0CEA135518BF95EA0C0F0CD032
:1062280050EA410618BF52EA4306D1D181EA030178
:1062380001F000414FF0000070BD50EA410606BF72
:106248001046194652EA430619D094EA0C0F02D1B7
:1062580050EA013613D195EA0C0F05D152EA0336FC
:106268001CBF104619460AD181EA030101F000411A
:1062780041F0FE4141F470014FF0000070BD41F063
:10628800FE4141F4780170BD70B54FF0FF0C4CF43D
:10629800E06C1CEA11541DBF1CEA135594EA0C0F5C
:1062A80095EA0C0F00F0A7F8A4EB050481EA030EA9
:1062B80052EA03354FEA013100F088804FEA033390
:1062C8004FF0805545EA131343EA12634FEA02225E
:1062D80045EA111545EA10654FEA00260EF000411F
:1062E8009D4208BF964244F1FD0404F5407402D271
:1062F8005B084FEA3202B61A65EB03055B084FEA02
:1063080032024FF480104FF4002CB6EB020E75EBFE
:10631800030E22BFB61A754640EA0C005B084FEA26
:106328003202B6EB020E75EB030E22BFB61A7546A3
:1063380040EA5C005B084FEA3202B6EB020E75EBEE
:10634800030E22BFB61A754640EA9C005B084FEA66
:106358003202B6EB020E75EB030E22BFB61A754673
:1063680040EADC0055EA060E18D04FEA051545EA62
:1063780016754FEA06164FEAC30343EA52734FEA0B
:10638800C2025FEA1C1CC0D111F4801F0BD141EA84
:1063980000014FF000004FF0004CB6E711F4801FE9
:1063A80004BF01430020B4F1FD0C88BFBCF5E06FC9
:1063B8003FF6AFAEB5EB030C04BFB6EB020C5FEAD9
:1063C800500C50F1000041EB045170BD0EF0004E2E
:1063D8004EEA113114EB5C04C2BFD4EB0C0541EA60
:1063E800045170BD41F480114FF0000E013C90E65D
:1063F80045EA060E8DE60CEA135594EA0C0F08BF21
:1064080095EA0C0F3FF43BAF94EA0C0F0AD150EA1F
:1064180001347FF434AF95EA0C0F7FF425AF1046B2
:1064280019462CE795EA0C0F06D152EA03353FF4DA
:10643800FDAE1046194622E750EA410618BF52EA57
:1064480043067FF4C5AE50EA41047FF40DAF52EA2B
:1064580043057FF4EBAE12E74FF0FF3C06E000BFC8
:106468004FF0010C02E000BF4FF0010C4DF804CDD5
:106478004FEA410C7FEA6C5C4FEA430C18BF7FEA95
:106488006C5C1BD001B050EA410C0CBF52EA430CC3
:1064980091EA030F02BF90EA020F0020704710F143
:1064A800000F91EA030F58BF994208BF90422CBFD2
:1064B800D8176FEAE37040F0010070474FEA410CCB
:1064C8007FEA6C5C02D150EA013C07D14FEA430CE9
:1064D8007FEA6C5CD6D152EA033CD3D05DF8040B5A
:1064E800704700BF8446104662468C46194663468C
:1064F80000E000BF01B5FFF7B7FF002848BF10F163
:10650800000F01BD4DF808EDFFF7F4FF0CBF0120A7
:1065180000205DF808FB00BF4DF808EDFFF7EAFF23
:1065280034BF012000205DF808FB00BF4DF808EDDE
:10653800FFF7E0FF94BF012000205DF808FB00BFD3
:106548004DF808EDFFF7CEFF94BF012000205DF85D
:1065580008FB00BF4DF808EDFFF7C4FF34BF01206A
:1065680000205DF808FB00BF4FEA410C7FEA6C5C35
:1065780002D150EA013C0AD14FEA430C7FEA6C5C35
:1065880002D152EA033C02D14FF0000070474FF0AD
:10659800010070474FEA410212F5001215D211D5D9
:1065A8006FF47873B3EB625212D94FEAC12343F008
:1065B800004343EA505311F0004F23FA02F018BF8A
:1065C800404270474FF00000704750EA013005D153
:1065D80011F0004008BF6FF0004070474FF0000016
:1065E800704700BF4A0011D212F5001211D20DD522
:1065F8006FF47873B3EB62520ED44FEAC12343F0C1
:10660800004343EA505323FA02F070474FF000006A
:10661800704750EA013002D14FF0FF3070474FF019
:10662800000070474FEA4102B2F1E04324BFB3F5DE
:10663800001CDCF1FE5C0DD901F0004C4FEAC002F1
:106648004CEA5070B2F1004F40EB830008BF20F0D5
:106658000100704711F0804F21D113F13872BCBF8F
:1066680001F00040704741F480114FEA5252C2F1E4
:106678001802C2F1200C10FA0CF320FA02F018BF2D
:1066880040F001004FEAC1234FEAD32303FA0CFC80
:1066980040EA0C0023FA02F34FEA4303CCE77FEA0F
:1066A800625307D150EA01331EBF4FF0FE4040F459
:1066B8004000704701F0004040F0FE4040F4000008
:1066C800704700BF53B94AB9002908BF00281CBF4A
:1066D8004FF0FF314FF0FF3000F0A2B9ADF1080CD8
:1066E8006DE904CE00F02AF8DDF804E0DDE90223C4
:1066F80004B07047D0B500220E4B06460F46FFF790
:1067080099FCFFF76FFF0446FFF71EFC00220A4BB7
:10671800FFF790FC02460B4630463946FFF7D6FA9B
:10672800FFF760FF2346002242EA0002104619469E
:10673800D0BD00BF0000F03D0000F0412DE9F0475A
:106748008C460E460446089D002B50D18A421746B7
:106758006CD9B2FA82FEBEF1000F0BD0CEF1200444
:1067680020FA04F401FA0EF644EA060C02FA0EF7CF
:1067780000FA0EF44FEA1749220CBCFBF9F01FFA95
:1067880087F809FB10C642EA064600FB08F3B34245
:1067980009D9F61900F1FF3280F02281B34240F2A4
:1067A8001F8102383E44F61AA2B2B6FBF9F309FB80
:1067B800136642EA064403FB08F8A04509D9E41920
:1067C80003F1FF3280F00A81A04540F20781023BC5
:1067D8003C44C8EB040443EA00400021002D62D089
:1067E80024FA0EF400232C606B60BDE8F0878B421E
:1067F80007D9002D55D0002185E841000846BDE89D
:10680800F087B3FA83F1002940F09080B34202D3B5
:10681800824200F2F880841A66EB03060120B4462F
:10682800002D40D085E81010BDE8F08712B9012787
:10683800B7FBF2F7B7FA87FEBEF1000F35D1F31BAD
:106848004FEA17481FFA87FC0121B3FBF8F0220C26
:1068580008FB103642EA06460CFB00F3B34207D9A0
:10686800F61900F1FF3202D2B34200F2CE80104690
:10687800F61AA2B2B6FBF8F308FB136642EA06441E
:106888000CFB03FCA44507D9E41903F1FF3202D23B
:10689800A44500F2B5801346CCEB040443EA00405B
:1068A8009CE729462846BDE8F087CEF1200106FA84
:1068B8000EF307FA0EF720FA01F94FEA1748CE400F
:1068C80049EA0309B6FBF8FA4FEA194408FB1A66C5
:1068D8001FFA87FC44EA06430AFB0CF29A4200FAC4
:1068E8000EF40AD9DB190AF1FF3180F087809A4249
:1068F80040F28480AAF1020A3B449B1A1FFA89F9E4
:10690800B3FBF8F108FB113349EA034301FB0CF62A
:106918009E4207D9DB1901F1FF326BD29E4269D939
:1069280002393B449B1B41EA0A418EE7C1F1200E24
:1069380022FA0EF48B40234320FA0EF706FA01F4EC
:106948004FEA134C26FA0EF63C43B6FBFCF9270C2B
:106958000CFB19661FFA83F847EA064609FB08F795
:10696800B74202FA01F200FA01FA08D9F61809F159
:10697800FF3041D2B7423FD9A9F102091E44F61BA4
:10698800A0B2B6FBFCF40CFB146640EA064704FB15
:1069980008F8B84507D9FF1804F1FF3028D2B845E0
:1069A80026D9023C1F4444EA0940C8EB0707A0FB6C
:1069B80002894F4544464E4614D329D065B3BAEBF5
:1069C800040367EB060707FA0EFECB40CF404EEAFA
:1069D800030385E888000021BDE8F0871346F8E640
:1069E8001046E0E6B8EB020469EB03060138E5E778
:1069F8000446D8E7114695E78146C0E78A467CE712
:106A0800023B3C4448E708460AE702383E442FE781
:106A1800C245E7D33E46D1E72946BDE8F08700BF27
:106A2800704700BF10B5054C13462CB10A46014605
:106A38000220AFF3008010BD204610BD000000000A
:106A480010B5431E0A44914204D011F8014B03F8D3
:106A5800014FF8E710BD02440346934202D003F801
:106A6800011BFAE77047000038B5124B1C68A36B8E
:106A78000546D3B91820FDF707FE43F20E33A0638D
:106A880003804AF6CD33438041F2342383804EF2AB
:106A98006D63C3804DF6EC630381052343810B23AB
:106AA800838101220023C0E90423A36B00221D6116
:106AB8005A6138BDC4E30320024B0146186800F050
:106AC80003B800BFC4E3032070B5064608460C4669
:106AD80000F00DF8451C29463046FDF7F5FD064641
:106AE80018B12A462146FFF7ABFF304670BD034672
:106AF80013F8012B002AFBD1181A0138704700003F
:106B08001D400D0059400D0085400D0089400D00C5
:106B18000000000041444320566F6C746167652093
:106B28003D20006D560053696D756C617465642075
:106B38005072657373757265006F68206E6F657348
:106B48002100546861742073686F756C64206265F5
:106B580020616E206576656E74207269676874209E
:106B680074686572652E2E2E20000000000000005B
:106B78000000000019470D0023470D002D470D00A8
:106B880037470D0041470D004D470D0059470D008F
:106B980065470D006D470D0077470D0081470D00D3
:106BA800000000000000000077480D006D480D004F
:106BB80063480D0019480D0057480D004B480D005B
:106BC8003F480D0037480D002D480D0023480D00A3
:106BD80081470D000000000000000000F3480D0090
:106BE800E9480D00DF480D00D5480D00C9480D00E3
:106BF800BD480D00B1480D00A9480D009F480D0083
:106C080095480D0081470D000000000000000000BD
:106C1800C9490D00CB490D0000000000000000002C
:106C2800074A0D00514A0D00294A0D00094A0D0076
:106C3800314A0D00394A0D00414A0D00494A0D00FC
:106C48000000000000000000AF4A0D00D34A0D000C
:106C5800DF4A0D00B3530D00BB4A0D00C74A0D00B3
:106C6800C14A0D00CD4A0D00B14A0D00B54A0D00CC
:106C78000000000000000000894B0D00CD4B0D0006
:106C8800A74B0D00B3530D00A14B0D008B4B0D000E
:106C9800934B0D00C74B0D009B4B0D00854B0D0012
:106CA8000000000000000000734C0D00654C0D0052
:106CB800674C0D000000000000000000494D0D0069
:106CC8004F4D0D00774D0D005B4D0D004B4D0D00E8
:106CD8005A00252B3033643A253032750025592D5A
:106CE800256D2D25645425483A254D3A2553257A96
:106CF8000061736374696D65006C6E00666E006395
:106D08006F64650064657461696C000D0A00253064
:106D180031307520005D20002564002C20002829D2
:106D28003A2000205B00636F6465203D20002569E0
:106D38000064657461696C73203D2000626175644C
:106D48000053657269616C0053657269616C31004A
:106D58007479706500706172616D00636D640069BB
:106D68006400686E64007374726D0066696C740008
:106D78006C766C0061646448616E646C6572007264
:106D8800656D6F766548616E646C657200656E75D9
:106D98006D48616E646C657273004A534F4E53744C
:106DA8007265616D4C6F6748616E646C65720061F5
:106DB8007070006E6F6E6500747261636500696E55
:106DC800666F007761726E006572726F7200706133
:106DD8006E696300616C6C006E616E006F766600B0
:106DE8002E00696E66000000000000000000000030
:106DF800F3580D00E9580D00DF580D00D5580D0067
:106E0800C9580D00BD580D00B1580D00A9580D0006
:106E18009F580D0095580D0081470D000000000097
:106E2800000000000000000000000000000000005A
:106E3800000000000000000000000000000000004A
:106E4800000000000000000000000000000000003A
:106E5800000000000000000000000000000000002A
:106E6800000000000000000000000000000000001A
:106E780000000000000000000000000043000000C7
:106E880069410D00E1420D0005480D0081480D00E3
:106E98007D490D006D530D0089530D009D530D0064
:106EA8007D580D00FD580D0051590D003D5A0D003B
:106EB800C15A0D00855B0D00495C0D000000000003
:086EC8000000000000000000C2
:086ED00074F8FF7F01000000CF
:106ED800F96C0D0000000000246E0D00446E0D00DA
:106EE800646E0D00000000000000000000000000BB
:106EF80000000000846E0D0000000000000000008B
:106F08000000000000000000000000000000000079
:106F18000000000000000000000000000000000069
:106F28000000000000000000000000000000000059
:086F38000000000064E30320E7
:106F4000FFFFFFFF00000102030405060708090A0E
:106F50000B0C0D0E0F101112131415161718191A09
:086F60001B1C1D1E1F20280050
:046F68007856341211
:04000003D0004018D1
:00000001FF
