:02000002D0002C
:1040000000400D00E0610D00000005000C000501FE
:0840100004019301000000000F
:10401800EC5D0D0009480A49884208B505D0094AEF
:10402800824202D0121A01F099FE0748074A00217D
:10403800121A01F09EFE014808BD00BF64E3032088
:1040480050610D00CCE30320CCE30320F0E703200C
:1040580070B500F0C1FD074C074BE41AA408002511
:104068001E46A54204D056F8253098470135F8E792
:1040780070BD00BF48610D000C610D0000F050B824
:1040880008B500F057F8BDE8084000F073BD00F02F
:104098003DBA00F03BBA0078B0FA80F040097047AA
:1040A80001230370704710B5002104460E2000F06C
:1040B800D1FF204610BD000038B5044614250E2057
:1040C80000F0D9FF07EE900A94ED007AF8EEE77A4F
:1040D800013D77EE877AC4ED007AF0D1F3EE046AF9
:1040E80087EEA67ADFED0C7AC7EE276A16EE900AFD
:1040F80001F08AFA06A3D3E9002301F0D9FA01F006
:10410800CFFD206000EE100A38BD00BFAFF300807D
:104118006666666666660A4000F07F4500F042B94A
:1041280008B500F067FC4FF4E131BDE8084000F045
:1041380055BC000010B52DED028B82B06846FFF724
:10414800B2FF6846FFF7B8FFB0EE408A00F052FCB5
:10415800104900F0AAFD00F04DFCDFED0F7A68EE83
:10416800277A044617EE900A01F04EFA41EC100B3C
:104178000621204600F0BAFE00F03CFC074900F09A
:10418800A7FD4FF47A7000F067FD02B0BDEC028B1A
:1041980010BD00BF005E0D0000007A440F5E0D00E8
:1041A80000F000B908B5024B1B681B68019308BDF5
:1041B8004C02030008B5024B1B685B68019308BDFD
:1041C8004C02030008B5024B1B681B69019308BD2C
:1041D8004C02030008B5024B1B685B69019308BDDC
:1041E8004C02030008B5024B1B689B69019308BD8C
:1041F8004C02030008B5024B1B68DB69019308BD3C
:104208004C02030008B5024B1B681B6A019308BDEA
:104218004C02030008B5024B1B681B6A019308BDDA
:104228002802030008B5024B1B685B6A019308BDAE
:104238002802030008B5024B1B689B6A019308BD5E
:104248002802030008B5024B1B68DB6A019308BD0E
:104258002802030008B5024B1B681B6B019308BDBD
:104268002802030008B5024B1B685B6B019308BD6D
:104278002802030008B5024B1B681B6C019308BD9C
:104288002802030008B5024B1B681B68019308BD90
:104298003C02030008B5024B1B68DB68019308BDAC
:1042A8003C02030008B5024B1B681B69019308BD5B
:1042B8003C02030008B5024B1B685B69019308BD0B
:1042C8003C02030008B5024B1B689B69019308BDBB
:1042D8003C02030008B5024B1B68DB69019308BD6B
:1042E8003C02030008B5024B1B681B6A019308BD1A
:1042F8003C02030008B5024B1B689B6A019308BD8A
:104308003C02030008B5024B1B685B69019308BDBA
:104318006402030008B5024B1B689B68019308BD43
:104328004802030008B5024B1B681B69019308BDCE
:104338004802030008B5024B1B685B69019308BD7E
:104348004802030008B5024B1B681B6B019308BDAC
:104358004802030008B5024B1B685B6C019308BD5B
:104368004802030008B5024B1B685B68019308BD4F
:104378001802030008B5024B1B685B69019308BD6E
:104388001802030008B5024B1B68DB69019308BDDE
:104398003002030008B5024B1B681B6A019308BD75
:1043A8003002030008B5024B1B681B68019308BD67
:1043B8002C02030008B5024B1B685B68019308BD1B
:1043C8002C02030008B5024B1B689B68019308BDCB
:1043D8002C02030008B5024B1B681B6B019308BD38
:1043E8002C02030008B5024B1B689B68019308BDAB
:1043F8006802030008B5024B1B68DB68019308BD1F
:104408006802030008B5024B1B68DB6B019308BD0B
:104418004402030008B5024B1B685B68019308BDA2
:104428004002030008B5024B1B689B68019308BD56
:104438004002030008B5024B1B68DB68019308BD06
:104448004002030008B5024B1B681B69019308BDB5
:104458004002030008B5024B1B685B69019308BD65
:104468004002030008B5024B1B689B69019308BD15
:104478004002030008B5024B1B68DB69019308BDC5
:104488004002030008B5024B1B681B6A019308BD74
:104498004002030008B5024B1B681B6B019308BD63
:1044A8004002030008B5024B1B685B6B019308BD13
:1044B8004002030008B5024B1B685B68019308BD06
:1044C8002002030008B5024B1B685B69019308BD15
:1044D8002002030008B5034B1B68D3F8883001930A
:1044E80008BD00002002030008B5034B1B68D3F881
:1044F8009430019308BD00002002030008B5024B68
:104508001B681B68019308BD1C02030008B5024B19
:104518001B685B68019308BD1C02030000231A4650
:104528004068FFF777BF002202214068FFF782BF8B
:10453800002211464068FFF775BF00221146406807
:10454800FFF780BF00231A4619464068FFF782BF6D
:1045580000231A4619464068FFF784BF002281F0FD
:1045680001014068FFF786BF00224068FFF792BF4D
:10457800002211464068FFF795BF002211464068A7
:10458800FFF780BF70B58CB01446064600F092FA6B
:104598000CAB0022114643F8302D2046FFF72AFFC6
:1045A800014658BB009B4BB35A68022A0ED00A2A10
:1045B80024D15C69112201A801F0DBFB06238DF8E8
:1045C800143001AD04F10803183405E05969304688
:1045D800043100F09CFA11E0186859682A4603C2B1
:1045E8000833A3421546F7D101A906A807AD00F084
:1045F8006FFA0FCD341D0FC42B6823700098FFF796
:10460800F1FE30460CB070BD024B034A1A6000221E
:104618005A607047D0E303201C5E0D00002211464B
:104628004068FFF70FBF002211464068FFF72ABF16
:10463800002211464068FFF735BF00224068FFF7A7
:1046480029BF002281F001014068FFF713BF002352
:104658001A4619464068FFF705BF00231A4619464F
:104668004068FFF7F7BE002211464068FFF7DABE40
:10467800002202214068FFF7DDBE00231A46406889
:10468800FFF7C8BE024B04225A60024A1A607047FC
:10469800D8E30320505E0D00002211464068FFF762
:1046A800F1BE002211464068FFF7FCBE00224068B8
:1046B800FFF7F0BE002281F001014068FFF7DABE83
:1046C80000231A4619464068FFF7CCBE00231A4655
:1046D80019464068FFF7BEBE002211464068FFF742
:1046E800B1BE002211464068FFF79CBE002202219D
:1046F8004068FFF79FBE00231A464068FFF78ABE4E
:1047080010B103685B681847704738B504460068FD
:10471800D0B1FFF7FFFDB8B9237C1BB9206808B1F9
:10472800FFF700FE656855B1AB681BB10322294647
:10473800284698472846FFF7AAFC002363602068AC
:10474800FFF7F8FD0023236038BD000038B50B4B98
:1047580003600446D0F8CC0108B1FFF79AFCD4F8FE
:10476800C4512DB12846FFF7D0FF2846FFF78FFC2C
:10477800A06808B1FFF7C4FF204638BD845E0D006D
:1047880038B50D4C0D4B23600025022304F5E47069
:104798006360A560C4F8C451C4F8C851FFF7DAFDD6
:1047A800074BC4F8CC5123602046064A0649BDE8A9
:1047B800384000F077BC00BFE0E303201C5E0D002A
:1047C800845E0D00CCE3032055470D00704710B5FB
:1047D8000446FFF75CFC204610BD000070B5084B8E
:1047E8000360044600250E4640F80C5FFFF7AAFD5B
:1047F80030462671FFF7C6FDA560204670BD00BF94
:10480800B85E0D000079FFF7C5BD7047F8B50646DC
:1048180015460C468F18BC4206D0336814F8011BA5
:104828009B6830469847F6E72846F8BD0022007C8A
:10483800FFF7F0BC0021007CFFF7F4BC0021007CEE
:10484800FFF7F8BC0021007CFFF7FCBC0021007CCE
:10485800FFF700BD10B50446FFF719FC204610BD50
:1048680010B504464FF47A730846A3600021044B40
:10487800207461602360FFF7FDFC204610BD00BF77
:10488800C85E0D000021007CFFF7ECBC7047417446
:104898007047007CFFF72EBD007CFFF703BD007C4E
:1048A800FFF710BD007CFFF705BD007CFFF712BDC8
:1048B80010B50446FFF7EBFB204610BD70B5457CEC
:1048C80004460E4625B9007CFFF714FD002805DDD7
:1048D8003146207CBDE87040FFF7DCBC284670BD3F
:1048E80010B5044608461146002262604FF47A72F9
:1048F800A260054A22600122207462741A46FFF7FA
:10490800C1FC204610BD00BFF05E0D00007CFFF723
:10491800E9BC000038B50C4D296811F0010411D12B
:104928002846FFF7B8FB68B1084A094B09482146F1
:10493800FFF7D6FF2846FFF7B3FB074A07490548A4
:1049480000F0B0FB034838BD48E603204CE60320DE
:10495800C4E50320B0E50320CCE3032095480D000F
:104968004174704770470021007CFFF73BBC012170
:10497800007CFFF737BC007CFFF72CBC007CFFF7FE
:1049880021BC38B50446007C0D46FFF723FC0028FF
:1049980001DC607C20B12946207CFFF72BFC01203C
:1049A80038BD007CFFF72EBC10B50446FFF76FFB3F
:1049B800204610BD10B50446002363604FF47A7397
:1049C800A360054B236001230846217463741146D4
:1049D800FFF7E8FB204610BD205F0D000022007C99
:1049E800FFF7E8BB10B514220446002101F0C1F915
:1049F800204610BD30B50E4D87B001A8FFF7F2FF75
:104A0800296811F0010410D12846FFF744FB60B172
:104A180001AA21460748FFF7CDFF2846FFF740FBCC
:104A2800054A0649034800F03DFB024807B030BD7F
:104A3800D0E60320D4E60320CCE303206D490D0023
:104A4800704710B50446FFF722FB204610BDF0B5AD
:104A5800037D062B8DB00E4600F104074FF00004CD
:104A680002D000F1080518E00CAD394605F8304DC4
:104A78002F232A460A20FFF745FC284601F0AAF909
:104A880033680246DB682946304698470FE024B170
:104A98002E21304600F00DF9044415F8011D0A22B4
:104AA800304600F04CF9BD420444F0D120460DB028
:104AB800F0BD000010B5054B0446112240F8043B38
:104AC800002101F056F9204610BD00BF505F0D00CF
:104AD8000346074A10B543F8042B01F1100251F8B8
:104AE800044B43F8044B9142F9D10A781A7010BD6F
:104AF800505F0D0010B59DF8084044EA032343EACF
:104B0800024242EA016104234160037510BD37B5D2
:104B18000D788B784A78C97800912946FFF7EAFF23
:104B280003B030BD10B58368044613B103220146B3
:104B38009847204610BD000008B50C4B33B1FFF76D
:104B480059FF03681B699847002809DC084B63B1C3
:104B5800FFF7E0FE03681B699847002803DC08BDDF
:104B6800AFF30080F2E7AFF3008008BD000000005B
:104B78000000000008B5FFF7DFFFFFF7FBFB014B64
:104B8800186008BD2CE7032007B5002300931A46D8
:104B98006FF07701FFF7A8FC03B05DF804FB000095
:104BA80007B543880A2B08D0502B09D1094B1B683D
:104BB8003BB103B05DF804EB1847FFF7E5FF06E0EB
:104BC800002300931A466FF07701FFF78DFC03B0BE
:104BD8005DF804FBE8E6032010B5FFF7C3FB0446C5
:104BE80001F0D0F8074B13B12046AFF30080002145
:104BF8000448FFF707FC00210348BDE81040FFF711
:104C080069BC00BF00000000A94B0D0010B50446A8
:104C1800FFF788FF204610BD0348044A04490023D3
:104C2800836000F03FBA00BFECE60320CCE303202A
:104C3800154C0D00024B1A68024B1A60704700BFF2
:104C480064E30320FCE60320014B024A1A60704724
:104C580000E703203B600D000021FFF733BCF8B5E7
:104C680006460D468F180024BD420CD0336815F84F
:104C7800011B9B6830469847002801DB0444F3E792
:104C8800002C08BF04462046F8BD70B505460C4602
:104C9800084649B101F09EF82B680246214628468D
:104CA800DB68BDE87040184770BD08B5FFF7EDFF39
:104CB80008BD03689B68184738B50D210546FFF7FE
:104CC800F8FF0A2104462846FFF7F3FF204438BDC1
:104CD80038B50546FFF7D9FF04462846FFF7ECFF2D
:104CE800204438BD30B58BB00B4600218DF8241018
:104CF800012A98BF0A220DF12304B3FBF2F505FB44
:104D0800123303F0FF03092B94BF30333733DBB280
:104D1800214604F801392B46002DEED1FFF7B5FFE7
:104D28000BB030BD10B42AB903685DF8044B9B681A
:104D3800C9B21847D2B25DF8044BFFF7D3BFFFF7EB
:104D4800F1BF2DE9F04107460E4615462AB903681A
:104D5800C9B29B68BDE8F04118470A2A02D1002968
:104D680001DA04E0D2B2BDE8F041FFF7BBBF2D2164
:104D7800FFF79FFF2A46044671423846FFF7B2FF05
:104D88002044BDE8F08100002DE9F04757EC106B96
:104D980082460D4610EE102A3B4610EE100A3946A0
:104DA80000F020FF08B1484912E027F000494FF011
:104DB800FF32464B3046494600F014FF68B94FF0C1
:104DC800FF32424B3046494600F0EEFE28B94049D2
:104DD8005046FFF75AFFBDE8F0874FF060423D4B61
:104DE8003046394600F0F4FE08B13B49F0E74FF091
:104DF80060423A4B3046394600F0CCFE0028F4D1E8
:104E0800002200233046394600F0C4FE40B12D216F
:104E18005046FFF74EFF07F1004304461F4600E0E7
:104E280004462F494FF0000800205FFA88F39D429E
:104E380006D900222B4B00F065FD08F10108F4E7C4
:104E480032463B4600F082FA0F46064600F008FF5D
:104E58000A22014680465046FFF744FF04447DB3CA
:104E6800404600F0AFFB02460B463046394600F09C
:104E78006BFA06460F4650461B49FFF706FF0444E7
:104E8800184B00223046394600F012FC0F46064601
:104E980000F0BEFE0A22014680465046FFF751FF49
:104EA8000444404600F09EFB02460B463046394615
:104EB80000F04AFA013D15F0FF0506460F46DFD11E
:104EC8002046BDE8F08700BF64600D00FFFFEF7F5C
:104ED8006E600D00FFFFEF4168600D00FFFFEFC13E
:104EE8000000E03F000024406C600D00C9B2FFF7ED
:104EF8004BBF0000044B00204FF6FF72187058801B
:104F08009A80FFF7D7BA00BF04E7032000221146B2
:104F18004068FFF7B7BA002211464068FFF7C2BAE7
:104F280000224068FFF7B6BA002281F0010140680C
:104F3800FFF7A0BA00231A4619464068FFF792BA4D
:104F480000231A4619464068FFF784BA0022114622
:104F58004068FFF777BA002211464068FFF762BA47
:104F6800002202214068FFF765BA00231A4640680C
:104F7800FFF750BA024B03225A60024A1A60704780
:104F88000CE703207C600D0038B50B4D296811F043
:104F980001040FD12846FFF77EF858B1214607488B
:104FA800FFF75EFC2846FFF77BF8054A05490348EA
:104FB80000F078F8014838BD14E7032018E703200B
:104FC800CCE3032013480D0070B50C4C0C4E0D4D6E
:104FD80000212046FFF702FC20460B4C32462946AA
:104FE80000F060F801212046FFF7F8FB3246294619
:104FF8002046BDE8704000F055B800BF30E70320F8
:10500800CCE30320D5470D0040E7032010B5044644
:105018000F48FFF7F7FB28B1A4F10B03022B01D8C7
:10502800002010BDFFF7B0FFFFF72CFC08B1012CE2
:10503800F6D9FFF76FFCFFF769FC18B1A4F1090373
:10504800012BEDD9232C8CBF0020012010BD00BFFF
:1050580030E70320232838B504460D460AD8FF292F
:1050680008D0FFF7D3FF28B129462046BDE83840CD
:10507800FFF7A8B938BD0D2810B504469CBF0E34FB
:10508800A4B22046FFF7C2FF50B103212046FFF724
:1050980091F9032804D12046BDE81040FFF79AB9DA
:1050A800002010BD0B460146184600F049BE00001E
:1050B800184B1A68D1075CBF01221A60164B1A6890
:1050C800D2075CBF01221A60144B1A68D0075CBF74
:1050D80001221A60124B1A68D1075CBF01221A60BC
:1050E800104B1A68D2075CBF01221A600E4B1A686F
:1050F800D0075CBF01221A600C4B1A68D1075CBF4D
:1051080001221A600A4B1A68D2075CBF01221A6092
:10511800704700BF6CE7032068E7032064E70320BB
:1051280060E703205CE7032058E7032054E70320E7
:1051380050E70320244B1A68D0075CBF01221A608D
:10514800224B1A68D1075CBF01221A60204B1A68EB
:10515800D2075CBF01221A601E4B1A68D0075CBFD9
:1051680001221A601C4B1A68D1075CBF01221A6021
:105178001A4B1A68D2075CBF01221A60184B1A68CA
:10518800D0075CBF01221A60164B1A68D1075CBFB2
:1051980001221A60144B1A68D2075CBF01221A60F8
:1051A800124B1A68D0075CBF01221A60104B1A68AC
:1051B800D1075CBF01221A600E4B1A68D2075CBF88
:1051C80001221A60704700BF9CE7032098E703207C
:1051D80094E7032090E703208CE7032088E7032067
:1051E80084E7032080E703207CE7032078E7032097
:1051F80074E7032070E70320244B1A68D0075CBFCC
:1052080001221A60224B1A68D1075CBF01221A607A
:10521800204B1A68D2075CBF01221A601E4B1A681D
:10522800D0075CBF01221A601C4B1A68D1075CBF0B
:1052380001221A601A4B1A68D2075CBF01221A6051
:10524800184B1A68D0075CBF01221A60164B1A68FF
:10525800D1075CBF01221A60144B1A68D2075CBFE1
:1052680001221A60124B1A68D0075CBF01221A602B
:10527800104B1A68D1075CBF01221A600E4B1A68DE
:10528800D2075CBF01221A60704700BFCCE7032039
:10529800C8E70320C4E70320C0E70320BCE70320D6
:1052A800B8E70320B4E70320B0E70320ACE7032006
:1052B800A8E70320A4E70320A0E70320184B1A68F7
:1052C800D1075CBF01221A60164B1A68D2075CBF6F
:1052D80001221A60144B1A68D0075CBF01221A60B9
:1052E800124B1A68D1075CBF01221A60104B1A686A
:1052F800D2075CBF01221A600E4B1A68D0075CBF48
:1053080001221A600C4B1A68D1075CBF01221A608F
:105318000A4B1A68D2075CBF01221A60704700BFA7
:10532800ECE70320E8E70320E4E70320E0E70320B5
:10533800DCE70320D8E70320D4E70320D0E70320E5
:1053480081F0004102E000BF83F0004330B54FEA2E
:1053580041044FEA430594EA050F08BF90EA020F9B
:105368001FBF54EA000C55EA020C7FEA645C7FEA2E
:10537800655C00F0E2804FEA5454D4EB5555B8BF51
:105388006D420CDD2C4480EA020281EA030382EAC2
:10539800000083EA010180EA020281EA0303362D54
:1053A80088BF30BD11F0004F4FEA01314FF4801C27
:1053B8004CEA113102D0404261EB410113F0004F39
:1053C8004FEA03334CEA133302D0524263EB4303F0
:1053D80094EA050F00F0A780A4F10104D5F1200E8E
:1053E8000DDB02FA0EFC22FA05F2801841F10001E9
:1053F80003FA0EF2801843FA05F359410EE0A5F1BD
:1054080020050EF1200E012A03FA0EFC28BF4CF0ED
:10541800020C43FA05F3C01851EBE37101F00045A3
:1054280007D54FF0000EDCF1000C7EEB00006EEBB0
:105438000101B1F5801F1BD3B1F5001F0CD349083A
:105448005FEA30004FEA3C0C04F101044FEA445291
:1054580012F5800F80F09A80BCF1004F08BF5FEA18
:10546800500C50F1000041EB045141EA050130BDF8
:105478005FEA4C0C404141EB010111F4801FA4F19B
:105488000104E9D191F0000F04BF01460020B1FAF0
:1054980081F308BF2033A3F10B03B3F120020CDA28
:1054A8000C3208DD02F1140CC2F10C0201FA0CF006
:1054B80021FA02F10CE002F11402D8BFC2F1200C6B
:1054C80001FA02F120FA0CFCDCBF41EA0C01904021
:1054D800E41AA2BF01EB0451294330BD6FEA04046A
:1054E8001F3C1CDA0C340EDC04F11404C4F1200255
:1054F80020FA04F001FA02F340EA030021FA04F367
:1055080045EA030130BDC4F10C04C4F1200220FABD
:1055180002F001FA04F340EA0300294630BD21FAFB
:1055280004F0294630BD94F0000F83F4801306BFC1
:1055380081F480110134013D4EE77FEA645C18BFB5
:105548007FEA655C29D094EA050F08BF90EA020F4C
:1055580005D054EA000C04BF1946104630BD91EA44
:10556800030F1EBF0021002030BD5FEA545C05D147
:105578004000494128BF41F0004130BD14F5800486
:105588003CBF01F5801130BD01F0004545F0FE41FA
:1055980041F470014FF0000030BD7FEA645C1ABF2F
:1055A800194610467FEA655C1CBF0B46024650EA66
:1055B800013406BF52EA033591EA030F41F4002192
:1055C80030BD00BF90F0000F04BF0021704730B518
:1055D8004FF4806404F132044FF000054FF00001ED
:1055E80050E700BF90F0000F04BF0021704730B5AE
:1055F8004FF4806404F1320410F0004548BF404283
:105608004FF000013EE700BF42004FEAE2014FEAD7
:1056180031014FEA02701FBF12F07F4393F07F4FB2
:1056280081F06051704792F0000F14BF93F07F4FE4
:10563800704730B54FF4607401F0004521F0004127
:1056480020E700BF50EA010208BF704730B54FF0AD
:1056580000050AE050EA010208BF704730B511F0B2
:10566800004502D5404261EB41014FF4806404F1EA
:1056780032045FEA915C3FF4DCAE4FF003025FEA6C
:10568800DC0C18BF03325FEADC0C18BF033202EBF4
:10569800DC02C2F1200300FA03FC20FA02F001FA4E
:1056A80003FE40EA0E0021FA02F11444C1E600BFED
:1056B80070B54FF0FF0C4CF4E06C1CEA11541DBFA0
:1056C8001CEA135594EA0C0F95EA0C0F00F0DEF86B
:1056D8002C4481EA030621EA4C5123EA4C5350EA50
:1056E800013518BF52EA033541F4801143F48013A1
:1056F80038D0A0FB02CE4FF00005E1FB02E506F032
:105708000042E0FB03E54FF00006E1FB03569CF086
:10571800000F18BF4EF0010EA4F1FF04B6F5007F8C
:1057280064F5407404D25FEA4E0E6D4146EB0606FE
:1057380042EAC62141EA55514FEAC52040EA5E5087
:105748004FEACE2EB4F1FD0C88BFBCF5E06F1ED831
:10575800BEF1004F08BF5FEA500E50F1000041EB68
:10576800045170BD06F0004646EA010140EA020015
:1057780081EA0301B4EB5C04C2BFD4EB0C0541EA37
:10578800045170BD41F480114FF0000E013C00F34C
:10579800AB8014F1360FDEBF002001F0004170BD70
:1057A800C4F10004203C35DA0C341BDC04F1140489
:1057B800C4F1200500FA05F320FA04F001FA05F215
:1057C80040EA020001F0004221F0004110EBD370E2
:1057D80021FA04F642EB06015EEA430E08BF20EA0E
:1057E800D37070BDC4F10C04C4F1200500FA04F3B1
:1057F80020FA05F001FA04F240EA020001F0004143
:1058080010EBD37041F100015EEA430E08BF20EAB5
:10581800D37070BDC4F1200500FA05F24EEA020EFD
:1058280020FA04F301FA05F243EA020321FA04F02C
:1058380001F0004121FA04F220EA020000EBD370E3
:105848005EEA430E08BF20EAD37070BD94F0000FE3
:105858000FD101F00046400041EB010111F4801F17
:1058680008BF013CF7D041EA060195F0000F18BFC8
:10587800704703F00046520043EB030313F4801F04
:1058880008BF013DF7D043EA0603704794EA0C0FBE
:105898000CEA135518BF95EA0C0F0CD050EA4106D4
:1058A80018BF52EA4306D1D181EA030101F0004151
:1058B8004FF0000070BD50EA410606BF1046194679
:1058C80052EA430619D094EA0C0F02D150EA013685
:1058D80013D195EA0C0F05D152EA03361CBF1046C6
:1058E80019460AD181EA030101F0004141F0FE4165
:1058F80041F470014FF0000070BD41F0FE4141F4E9
:10590800780170BD70B54FF0FF0C4CF4E06C1CEAE8
:1059180011541DBF1CEA135594EA0C0F95EA0C0F9D
:1059280000F0A7F8A4EB050481EA030E52EA033558
:105938004FEA013100F088804FEA03334FF0805579
:1059480045EA131343EA12634FEA022245EA1115A6
:1059580045EA10654FEA00260EF000419D4208BF57
:10596800964244F1FD0404F5407402D25B084FEA04
:105978003202B61A65EB03055B084FEA32024FF4B0
:1059880080104FF4002CB6EB020E75EB030E22BF0D
:10599800B61A754640EA0C005B084FEA3202B6EBCD
:1059A800020E75EB030E22BFB61A754640EA5C007C
:1059B8005B084FEA3202B6EB020E75EB030E22BF0C
:1059C800B61A754640EA9C005B084FEA3202B6EB0D
:1059D800020E75EB030E22BFB61A754640EADC00CC
:1059E80055EA060E18D04FEA051545EA16754FEA2E
:1059F80006164FEAC30343EA52734FEAC2025FEA4C
:105A08001C1CC0D111F4801F0BD141EA00014FF0DA
:105A180000004FF0004CB6E711F4801F04BF0143AB
:105A28000020B4F1FD0C88BFBCF5E06F3FF6AFAEC7
:105A3800B5EB030C04BFB6EB020C5FEA500C50F157
:105A4800000041EB045170BD0EF0004E4EEA1131DA
:105A580014EB5C04C2BFD4EB0C0541EA045170BDE1
:105A680041F480114FF0000E013C90E645EA060E25
:105A78008DE60CEA135594EA0C0F08BF95EA0C0F53
:105A88003FF43BAF94EA0C0F0AD150EA01347FF49B
:105A980034AF95EA0C0F7FF425AF104619462CE772
:105AA80095EA0C0F06D152EA03353FF4FDAE1046D5
:105AB800194622E750EA410618BF52EA43067FF426
:105AC800C5AE50EA41047FF40DAF52EA43057FF4B6
:105AD800EBAE12E74FF0FF3C06E000BF4FF0010CC1
:105AE80002E000BF4FF0010C4DF804CD4FEA410C25
:105AF8007FEA6C5C4FEA430C18BF7FEA6C5C1BD0F2
:105B080001B050EA410C0CBF52EA430C91EA030F72
:105B180002BF90EA020F0020704710F1000F91EACF
:105B2800030F58BF994208BF90422CBFD8176FEA9D
:105B3800E37040F0010070474FEA410C7FEA6C5C6B
:105B480002D150EA013C07D14FEA430C7FEA6C5C72
:105B5800D6D152EA033CD3D05DF8040B704700BF9E
:105B68008446104662468C461946634600E000BFEC
:105B780001B5FFF7B7FF002848BF10F1000F01BDBE
:105B88004DF808EDFFF7F4FF0CBF012000205DF889
:105B980008FB00BF4DF808EDFFF7EAFF34BF01200E
:105BA80000205DF808FB00BF4DF808EDFFF7E0FFA7
:105BB80094BF012000205DF808FB00BF4DF808EDF8
:105BC800FFF7CEFF94BF012000205DF808FB00BF5F
:105BD8004DF808EDFFF7C4FF34BF012000205DF841
:105BE80008FB00BF4FEA410C7FEA6C5C02D150EA27
:105BF800013C0AD14FEA430C7FEA6C5C02D152EABD
:105C0800033C02D14FF0000070474FF0010070478D
:105C18004FEA410212F5001215D211D56FF47873CC
:105C2800B3EB625212D94FEAC12343F0004343EA6F
:105C3800505311F0004F23FA02F018BF404270474A
:105C48004FF00000704750EA013005D111F00040D4
:105C580008BF6FF0004070474FF00000704700BF6A
:105C68004A0011D212F5001211D20DD56FF47873D3
:105C7800B3EB62520ED44FEAC12343F0004343EA28
:105C8800505323FA02F070474FF00000704750EA73
:105C9800013002D14FF0FF3070474FF000007047DD
:105CA8004FEA4102B2F1E04324BFB3F5001CDCF136
:105CB800FE5C0DD901F0004C4FEAC0024CEA50706E
:105CC800B2F1004F40EB830008BF20F0010070479D
:105CD80011F0804F21D113F13872BCBF01F00040A0
:105CE800704741F480114FEA5252C2F11802C2F1D2
:105CF800200C10FA0CF320FA02F018BF40F0010053
:105D08004FEAC1234FEAD32303FA0CFC40EA0C0004
:105D180023FA02F34FEA4303CCE77FEA625307D141
:105D280050EA01331EBF4FF0FE4040F44000704778
:105D380001F0004040F0FE4040F40000704700BF12
:105D480010B5054C13462CB10A4601460220AFF3A4
:105D5800008010BD204610BD0000000010B5431E95
:105D68000A44914204D011F8014B03F8014FF8E7B7
:105D780010BD02440346934202D003F8011BFAE720
:105D88007047000038B5124B1C68A36B0546D3B9A1
:105D98001820FEF7B3FB43F20E33A06303804AF6E4
:105DA800CD33438041F2342383804EF26D63C38048
:105DB8004DF6EC630381052343810B238381012284
:105DC8000023C0E90423A36B00221D615A6138BD7A
:105DD800C8E30320034613F8012B002AFBD1181A45
:105DE800013870471D400D0059400D0085400D00D9
:105DF80089400D000000000041444320566F6C7438
:105E0800616765203D20006D56000000000000001D
:105E18000000000025450D002F450D0039450D00F7
:105E280043450D004D450D0059450D0065450D00D4
:105E380071450D0079450D0083450D008D450D0018
:105E4800000000000000000083460D0079460D00A8
:105E58006F460D0025460D0063460D0057460D00A0
:105E68004B460D0043460D0039460D002F460D00E8
:105E78008D450D000000000000000000FF460D00E9
:105E8800F5460D00EB460D00E1460D00D5460D0028
:105E9800C9460D00BD460D00B5460D00AB460D00C8
:105EA800A1460D008D450D00000000000000000017
:105EB800D5470D00D7470D00000000000000000086
:105EC80013480D005D480D0035480D0015480D00BC
:105ED8003D480D0045480D004D480D0055480D0042
:105EE800000000000000000095480D00B9480D00B2
:105EF800C5480D00674C0D00A1480D00AD480D00C8
:105F0800A7480D00B3480D0097480D009B480D00A9
:105F180000000000000000006D490D00B1490D00AF
:105F28008B490D00674C0D0085490D006F490D0028
:105F380077490D00AB490D007F490D0069490D00F7
:105F48000000000000000000574A0D00494A0D00FB
:105F58004B4A0D005A00252B3033643A25303275F0
:105F68000025592D256D2D25645425483A254D3A8F
:105F78002553257A0061736374696D65006C6E0042
:105F8800666E00636F64650064657461696C000D1A
:105F98000A00253031307520005D20002564002C72
:105FA800200028293A2000205B00636F6465203DAB
:105FB800200025690064657461696C73203D2000C8
:105FC800626175640053657269616C00536572693A
:105FD800616C31007479706500706172616D006385
:105FE8006D6400696400686E64007374726D0066A5
:105FF800696C74006C766C0061646448616E646CF2
:1060080065720072656D6F766548616E646C657265
:1060180000656E756D48616E646C657273004A53F5
:106028004F4E53747265616D4C6F6748616E646C56
:10603800657200617070006E6F6E650074726163E6
:106048006500696E666F007761726E006572726FC7
:10605800720070616E696300616C6C006E616E0045
:106068006F7666002E00696E660000000000000072
:1060780000000000734F0D00694F0D005F4F0D00C9
:10608800554F0D00494F0D003D4F0D00314F0D008C
:10609800294F0D001F4F0D00154F0D008D450D00A8
:1060A80000000000000000000000000000000000E8
:1060B80000000000000000000000000000000000D8
:1060C80000000000000000000000000000000000C8
:1060D80000000000000000000000000000000000B8
:1060E80000000000000000000000000000000000A8
:1060F8000000000000000000000000000000000098
:106108004300000025410D00A9410D0011460D0076
:106118008D460D0089470D00214C0D003D4C0D00AA
:10612800514C0D00FD4E0D007D4F0D00D14F0D005F
:10613800B9500D003D510D0001520D00C5520D0022
:0861480000000000000000004F
:106150007D5F0D0000000000A8600D00C8600D000C
:10616000E8600D00000000000000000000000000DA
:106170000000000008610D000000000000000000A9
:10618000000000000000000000000000000000000F
:1061900000000000000000000000000000000000FF
:1061A00000000000000000000000000000000000EF
:0861B0000000000068E3032079
:1061B800FFFFFFFF00000102030405060708090AA4
:1061C8000B0C0D0E0F101112131415161718191A9F
:0861D8001B1C1D1E1F202800E6
:0461E00078563412A7
:04000003D0004018D1
:00000001FF
